:020000040800F2
:100000000050002065120008BD020008BF02000871
:10001000C1020008C3020008C50200080000000079
:10002000000000000000000000000000C7020008FF
:10003000C902000800000000CB020008CD02000841
:10004000AD120008AD120008AD120008AD12000894
:10005000AD120008AD120008AD120008AD12000884
:10006000AD120008AD120008AD120008AD12000874
:10007000AD120008AD120008AD120008AD12000864
:10008000AD120008AD120008AD120008AD12000854
:10009000AD120008AD120008AD120008AD12000844
:1000A000AD120008AD120008AD120008AD12000834
:1000B000AD120008AD120008AD120008AD12000824
:1000C000AD120008AD120008AD120008AD12000814
:1000D000AD120008AD120008AD120008AD12000804
:1000E000AD120008AD120008AD12000800000000BB
:1000F0000000000000000000000000000000000000
:0C01000000000000000000005FF808F1A3
:10010C000348044B834202D0034B03B1184770479A
:10011C000C0000200C000020000000000548064BDD
:10012C001B1AD90F01EBA301491002D0034B03B1E9
:10013C00184770470C0000200C0000200000000045
:10014C0010B5064C237843B9FFF7DAFF044B13B113
:10015C000448AFF300800123237010BD0C00002075
:10016C00000000000813000808B5054B1BB1054939
:10017C000548AFF30080BDE80840FFF7CFBF00BFD4
:10018C0000000000100000200813000882B0064B8D
:10019C009A6942F008029A619B6903F00803019383
:1001AC00019B02B0704700BF0010024072B6FEE720
:1001BC0008B50A480A4B03600A4B4360002383606E
:1001CC00C3604FF48042026143618361C361036287
:1001DC0000F0CEF800B908BDFFF7E8FF28000020BA
:1001EC0000540040801A060010B590B006AC2822CE
:1001FC000021204601F055F800230193029303934C
:10020C00049305930223069301230A9310230B9363
:10021C00204600F00DFA60B90F23019301460290BD
:10022C0003900490059001A800F036FC18B910B0AA
:10023C0010BDFFF7BBFFFFF7B9FF000008B500F0DA
:10024C00A9F9FFF7D1FFFFF7A1FFFFF7B1FF00F00E
:10025C00AEFF00F04FFF124A0221012000F096FF82
:10026C004FF4FA7000F0BAF90E4A0221084600F079
:10027C008DFF4FF4FA7000F0B1F90B4A0221032004
:10028C0000F084FF4FF4FA7000F0A8F9074A02213D
:10029C00042000F07BFF4FF4FA7000F09FF9D8E7D0
:1002AC0020130008341300084013000848130008FA
:1002BC00FEE7FEE7FEE7FEE7FEE770477047704794
:1002CC0008B500F079F908BD82B00E4B9A6942F07E
:1002DC0001029A619A6902F001020092009ADA69AD
:1002EC0042F08052DA61DB6903F080530193019B89
:1002FC00054A536823F0E06343F08063536002B017
:10030C00704700BF001002400000014010B586B0DD
:10031C00002302930393049305930268114B9A42B2
:10032C0001D006B010BD104CA36943F00803A361C3
:10033C00A36903F008030093009BC02302931223CC
:10034C0003930323059302A9084800F071FCE369A9
:10035C0043F40013E361E36903F400130193019B7D
:10036C00DFE700BF0054004000100240000C0140C9
:10037C00002800F0DB8038B5044690F83D30002BA7
:10038C0052D0242384F83D302268136823F00103F3
:10039C0013602268136843F40043136022681368E7
:1003AC0023F40043136000F033FC6268614B9A4203
:1003BC003FD8614B98428CBF00230123002B40F0A7
:1003CC00B7805E49A1FB00318B0CD4F800C0DCF87F
:1003DC00042022F03F0242EA9142CCF8042021682A
:1003EC000A6A22F03F02DFF84CC1D4F804E0E6457B
:1003FC0025D8013313430B622168CA6922F44F429A
:10040C0022F0FF02D4F804C04A4B9C4522D8431E6C
:10041C004FEA4C0CB3FBFCF3013340F6FC70034287
:10042C0054D0C3F30B0352E080F83C30FFF76EFF5F
:10043C00A7E7434B98428CBF00230123BEE74FF440
:10044C00967C0CFB03F3DFF8FCC0ACFB03C39B09ED
:10045C000133CFE7D4F808E0BEF1000F1AD1431EE8
:10046C000CEB4C05B3FBF5F30133C3F30B03B3FAFD
:10047C0083F35B09002B57D1BEF1000F19D1431E3A
:10048C000CEB4C0CB3FBFCF30133C3F30B0343F445
:10049C0000431CE00CEB8C0303EB83031D46431E53
:1004AC00B3FBF5F30133C3F30B03B3FA83F35B092B
:1004BC00E0E7431E0CEB8C0C0CEB8C0CB3FBFCF34D
:1004CC000133C3F30B0343F4404300E004231A430A
:1004DC00CA6121680B6823F0C003E269206A0243F9
:1004EC0013430B6021688B6823F4034323F0FF0351
:1004FC002269E068024313438B602168CB6823F0C8
:10050C00FF036269A06902431343CB60226813683E
:10051C0043F00103136000202064202384F83D3055
:10052C00206384F83E0038BD0123D0E701207047DA
:10053C000120F8E7A08601007F841E0083DE1B43A8
:10054C00FF083D00D34D621010B504460E4B1868E1
:10055C000E4B1A784FF47A73B3FBF2F3B0FBF3F053
:10056C0000F0B8FC68B90F2C01D901200AE0024652
:10057C0021464FF0FF3000F09DFC054B1C60002025
:10058C0000E0012010BD00BF08000020000000208A
:10059C000400002008B5074A136843F010031360E9
:1005AC00032000F075FC0F20FFF7CEFFFFF78CFE49
:1005BC00002008BD00200240034A1168034B1B7841
:1005CC000B441360704700BF7C000020000000202B
:1005DC00014B1868704700BF7C00002038B50446FA
:1005EC00FFF7F6FF0546B4F1FF3F02D0044B1B7832
:1005FC001C44FFF7EDFF401BA042FAD338BD00BFEF
:10060C000000002082B0084B1B68084AA2FB0323A1
:10061C005B0A00FB03F3019300BF019B5A1E01927E
:10062C00002BF9D102B0704708000020D34D6210A6
:10063C00002800F0F38170B582B00446036813F013
:10064C00010F2CD09A4B5B6803F00C03042B1DD0CC
:10065C00974B5B6803F00C03082B12D06368B3F55F
:10066C00803F41D0002B55D103F1804303F5043377
:10067C001A6822F480321A601A6822F480221A60F6
:10068C0037E08B4B5B6813F4803FE7D0884B1B68DB
:10069C0013F4003F03D06368002B00F0C181236882
:1006AC0013F0020F75D0824B5B6813F00C0F5FD008
:1006BC007F4B5B6803F00C03082B54D02369002B91
:1006CC0000F08A807B4B01221A60FFF781FF054600
:1006DC00774B1B6813F0020F75D1FFF779FF401BA6
:1006EC000228F5D90320A0E1714A136843F4803342
:1006FC001360636843B3FFF76BFF05466C4B1B68D5
:10070C0013F4003FCBD1FFF763FF401B6428F5D9EE
:10071C0003208AE1B3F5A02F09D0654B1A6822F4A7
:10072C0080321A601A6822F480221A60E1E703F121
:10073C008043A3F53C331A6842F480221A601A688D
:10074C0042F480321A60D4E7FFF742FF0546584B5B
:10075C001B6813F4003FA2D0FFF73AFF401B64283C
:10076C00F5D9032061E1524B5B6813F4803FA5D1AE
:10077C004F4B1B6813F0020F03D02369012B40F081
:10078C0051814B4A136823F0F803616943EAC103B2
:10079C001360236813F0080F33D0A369002B5DD0CE
:1007AC00444B0122C3F88024FFF712FF0546404B4F
:1007BC005B6A13F0020F21D1FFF70AFF401B0228DE
:1007CC00F5D9032031E13A4A136823F0F803616943
:1007DC0043EAC1031360DCE7364B00221A60FFF7D3
:1007EC00F7FE0546324B1B6813F0020FD1D0FFF712
:1007FC00EFFE401B0228F5D9032016E10120FFF77C
:10080C0001FF236813F0040F00F09880284BDB697C
:10081C0013F0805F35D1264BDA6942F08052DA61F1
:10082C00DB6903F080530193019B01231E46224B8D
:10083C001B6813F4807F27D0E368012B3ED0002B7C
:10084C0054D103F1804303F504331A6A22F00102F8
:10085C001A621A6A22F004021A6234E0154B002262
:10086C00C3F88024FFF7B4FE0546114B5B6A13F006
:10087C00020FC6D0FFF7ACFE401B0228F5D90320AF
:10088C00D3E000231E46D2E70B4A136843F480736F
:10089C001360FFF79DFE0546074B1B6813F4807F22
:1008AC00CAD1FFF795FE401B6428F5D90320BCE0A4
:1008BC000010024000004242007000405F4A136A80
:1008CC0043F001031362E36833B3FFF781FE05467F
:1008DC005A4B1B6A13F0020F2FD1FFF779FE401B06
:1008EC0041F288339842F3D903209EE0052B09D0BE
:1008FC00524B1A6A22F001021A621A6A22F004029E
:10090C001A62E0E74D4B1A6A42F004021A621A6A44
:10091C0042F001021A62D6E7FFF75AFE0546474B32
:10092C001B6A13F0020F08D0FFF752FE401B41F276
:10093C0088339842F3D9032077E0E6B9E369002BBA
:10094C0072D03E4A526802F00C02082A56D0022B92
:10095C0017D03B4B00221A66FFF73AFE0446374B82
:10096C001B6813F0007F47D0FFF732FE001B0228F4
:10097C00F5D9032059E0314AD36923F08053D36170
:10098C00DCE72F4B00221A66FFF722FE05462B4BA5
:10099C001B6813F0007F06D0FFF71AFE401B0228DD
:1009AC00F5D9032041E0236AB3F5803F1AD02349DF
:1009BC004B6823F47413226A606A024313434B603E
:1009CC001F4B01221A66FFF703FE04461B4B1B68E4
:1009DC0013F0007F0ED1FFF7FBFD001B0228F5D9A9
:1009EC00032022E0154A536823F40033A1680B431B
:1009FC005360DCE7002018E0002016E0012B16D035
:100A0C000E4B5B6803F48031226A914211D103F4DE
:100A1C007013626A93420ED1002006E001207047E9
:100A2C00012002E0012000E0184602B070BD012058
:100A3C00FBE70120F9E70120F7E700BF00100240B7
:100A4C00000042420F4B5B6803F00C02082A01D0F5
:100A5C000D487047C3F383420C49885C13F4803F04
:100A6C000BD0084B5B68C3F34043094AD35C064A7E
:100A7C0002FB00F0B0FBF3F07047064B03FB00F0F9
:100A8C00704700BF0010024000127A005413000897
:100A9C005013000800093D00002800F0A08070B53C
:100AAC000D460446524B1B6803F007038B420BD2D6
:100ABC004F4A136823F007030B431360136803F0CA
:100ACC0007038B4240F08D80236813F0020F17D080
:100ADC0013F0040F04D0474A536843F4E0635360A7
:100AEC00236813F0080F04D0424A536843F4605350
:100AFC005360404A536823F0F003A1680B435360E2
:100B0C00236813F0010F31D06368012B20D0022B26
:100B1C0025D0384A126812F0020F64D035494A6861
:100B2C0022F0030213434B60FFF752FD0646314B94
:100B3C005B6803F00C036268B3EB820F16D0FFF70F
:100B4C0047FD801B41F288339842F0D9032045E0E1
:100B5C00284A126812F4003FE0D101203EE0254AF9
:100B6C00126812F0007FD9D1012037E0204B1B68AE
:100B7C0003F00703AB420AD91D4A136823F007039D
:100B8C002B431360136803F00703AB422DD123688A
:100B9C0013F0040F06D0174A536823F4E063E1689E
:100BAC000B435360236813F0080F07D0114A5368A6
:100BBC0023F46053216943EAC1035360FFF742FFFA
:100BCC000C4B5B68C3F303130B4AD35CD8400B4B41
:100BDC0018600B4B1868FFF7B7FC002070BD0120A4
:100BEC0070470120FAE70120F8E70120F6E700BF83
:100BFC0000200240001002406C1300080800002086
:100C0C0004000020014B1868704700BF080000204A
:100C1C0008B5FFF7F7FF044B5B68C3F30223034AE5
:100C2C00D35CD84008BD00BF00100240641300081C
:100C3C0070B582B04FF0000EF446A4E0012B28D022
:100C4C00022B03D1CB6803F1080E24E01BBB8B688D
:100C5C00002B65D0012B5CD042614FF0080E1AE0DE
:100C6C00664DAB42F3D00CD8A5F58015AB42EED057
:100C7C0005F57025AB42EAD0A5F58015AB42E6D060
:100C8C0009E05F4DAB42E2D005F58035AB42DED0DA
:100C9C0001E0D1F80CE0FF2C45D806464FEA8C0257
:100CAC0033680F25954023EA05030EFA02F213432D
:100CBC0033604B6813F0805F63D0524B9A6942F0FB
:100CCC0001029A619B6903F001030193019B4FEAB6
:100CDC009C02951C4C4B53F825600CF00305AD00A1
:100CEC000F23AB4026EA0306484B984222D003F56B
:100CFC008063984263D003F58063984261D003F51A
:100D0C008063984214D0042315E0CB6803F10C0ED9
:100D1C00C1E702614FF0080EBDE74FF0000EBAE7D5
:100D2C004FF0040EB7E7061DACF108029200B7E7CE
:100D3C00032300E00023AB4033430232324D45F82D
:100D4C0022304B6813F4801F3DD0314A9368234303
:100D5C0093604B6813F4001F3BD02D4AD368234398
:100D6C00D3604B6813F4003F39D0294A53682343AE
:100D7C0053604B6813F4803F37D0254A13682343E4
:100D8C0013600CF1010C0B6833FA0CF233D0012216
:100D9C0002FA0CF203EA020432EA0303F1D14B68C3
:100DAC00032BBAD07FF64AAF122BAED03FF658AF1A
:100DBC00112B7FF470AFCB6803F1040E6BE70123AA
:100DCC00B9E70223B7E7124A936823EA0403936056
:100DDC00BFE70F4AD36823EA0403D360C1E70C4A88
:100DEC00536823EA04035360C3E7094A136823EAF0
:100DFC0004031360C5E702B070BD00BF00002210F1
:100E0C0000003110001002400000014000080140B9
:100E1C00000401400AB10161704709040161704787
:100E2C00002808DB0901C9B200F1604000F56140FF
:100E3C0080F80013704700F00F000901C9B2014B94
:100E4C001954704714ED00E000B500F00700A0F154
:100E5C00030CBCF1040F07D8C0F1070E04300628B0
:100E6C0006D84FF0000C03E04FF0040E4FF0000CCE
:100E7C004FF0FF3303FA0EF021EA000101FA0CF1F6
:100E8C0003FA0CF322EA030241EA020000BD00005F
:100E9C00074AD36823F4E0631B041B0C000200F424
:100EAC00E060034343F0BF6343F40033D360704707
:100EBC0000ED00E010B50446054BD868C0F30220E5
:100ECC00FFF7C2FF01462046FFF7AAFF10BD00BF87
:100EDC0000ED00E00138B0F1807F0BD24FF0E02341
:100EEC005861054AF02182F82310002098610722EE
:100EFC001A6170470120704700ED00E0704782B026
:100F0C000023019302E0019B01330193019B132BFE
:100F1C00F9D902B07047000030B587B0164B9A690A
:100F2C0042F008029A619A6902F008020192019A51
:100F3C00DA6922F40012DA6102A9002302934B60F1
:100F4C008B60CB604FF470730293012403940323E2
:100F5C0005930494094D2846FFF76AFE22464FF488
:100F6C00A0712846FFF756FF22464FF42071284601
:100F7C00FFF750FF07B030BD00100240000C0140DD
:100F8C0010B5104C01224FF420712046FFF742FFA0
:100F9C0001224FF4A0712046FFF73CFFFFF7AFFF93
:100FAC0000224FF420712046FFF734FFFFF7A7FF14
:100FBC0000224FF4A0712046FFF72CFFFFF79FFF94
:100FCC0010BD00BF000C014010B50D4C00224FF4B9
:100FDC0020712046FFF71EFFFFF791FF01224FF40F
:100FEC00A0712046FFF716FFFFF789FF01224FF48F
:100FFC0020712046FFF70EFFFFF781FF10BD00BFE9
:10100C00000C014070B5064600241AE000224FF493
:10101C0020711F48FFF7FEFEFFF771FF1C4D0122E8
:10102C004FF4A0712846FFF7F5FEFFF768FF00228A
:10103C004FF4A0712846FFF7EDFEFFF760FF013477
:10104C00E4B2072C0AD8802323411E42DED00122B1
:10105C004FF420710E48FFF7DDFEDDE70C4C01224A
:10106C004FF420712046FFF7D5FEFFF748FF012211
:10107C004FF4A0712046FFF7CDFEFFF740FF002292
:10108C004FF4A0712046FFF7C5FEFFF738FF70BD87
:10109C00000C014010B50446FFF772FF7820FFF7F3
:1010AC00B1FF0020FFF7AEFF2046FFF7ABFFFFF7C5
:1010BC008BFF10BD10B50446FFF762FF7820FFF7D9
:1010CC00A1FF4020FFF79EFF2046FFF79BFFFFF795
:1010DC007BFF10BD10B50C4640F0B000FFF7DAFFF7
:1010EC00200940F01000FFF7D5FF04F00F00FFF7C8
:1010FC00D1FF10BD38B5002501E00135EDB2072D4B
:10110C000DD800212846FFF7E5FF002414F0800FCE
:10111C00F3D10020FFF7CEFF0134E4B2F6E738BD7F
:10112C00F8B5064615464F1EFF00FFB201384000C9
:10113C00394600F0FE00FFF7CDFF002409E0A5F1D1
:10114C002002114B03EB0213185DFFF7B3FF0134C0
:10115C00E4B2072CF3D97000C0B201383946C0B2E2
:10116C00FFF7B8FF00240BE0A5F1200104F1080201
:10117C00054B03EB0113985CFFF79CFF0134E4B2C1
:10118C00072CF1D9F8BD00BF7C130008F8B5074651
:10119C000E461546002406E0A119C9B23846FFF7E1
:1011AC00BFFF0134E4B22A5D002AF5D1F8BD08B5C1
:1011BC00C820FFF713FAFFF7AFFEAE20FFF76AFF68
:1011CC00D520FFF767FF8020FFF764FFA820FFF70B
:1011DC0061FF3F20FFF75EFFD320FFF75BFF00208E
:1011EC00FFF758FF4020FFF755FFA120FFF752FFF4
:1011FC00C820FFF74FFFDA20FFF74CFF1220FFF754
:10120C0049FF8120FFF746FFCF20FFF743FFD9208E
:10121C00FFF740FFF120FFF73DFFDB20FFF73AFF20
:10122C003020FFF737FF2020FFF734FF0220FFF7B5
:10123C0031FFA420FFF72EFFA620FFF72BFF8D20F8
:10124C00FFF728FF1420FFF725FFAF20FFF722FF41
:10125C00FFF750FF08BD0000FFF750FE0B480C498C
:10126C000C4A002302E0D458C4500433C4188C42F6
:10127C00F9D3094A094C002301E013600432A2425D
:10128C00FBD300F017F8FEF7D9FF704700000020E1
:10129C000C000020741900080C00002080000020B5
:1012AC00FEE703460244934200D1704703F8011B4A
:1012BC00F9E7000070B500260C4C0D4B1D1BB6EB6E
:1012CC00A50F09D1002600F019F80A4C0A4B1D1B7A
:1012DC00B6EBA50F05D170BD54F8043B9847013609
:1012EC00EDE754F8043B98470136F1E76C19000818
:1012FC006C1900086C19000870190008F8B500BFCB
:10130C00F8BC08BC9E467047F8B500BFF8BC08BCDA
:04131C009E46704732
:1013200048656C6C6F2C2077696E7465726C7A649A
:101330002100000054686973206973207468650097
:1013400053544D33320000004F4C454421000000FF
:101350000102000002030405060708090A0B0C0D30
:101360000E0F101000000000010203040000000036
:101370000000000001020304060708090000000045
:10138000000000000000000000000000000000F865
:1013900000000000000000333000000000100C06C8
:1013A000100C0600000000000000000040C0784063
:1013B000C0784000043F04043F040400007088FC2F
:1013C00008300000001820FF211E0000F008F00087
:1013D000E018000000211C031E211E0000F00888F8
:1013E000700000001E2123241927211010160E0062
:1013F000000000000000000000000000000000E00D
:101400001804020000000007182040000002041821
:10141000E00000000040201807000000404080F07D
:10142000804040000202010F01020200000000F0B3
:10143000000000000101011F010101000000000087
:101440000000000080B070000000000000000000FC
:101450000000000000010101010101010000000085
:10146000000000000030300000000000000000001C
:1014700080601804006018060100000000E01008F9
:101480000810E000000F102020100F00001010F8CE
:10149000000000000020203F20200000007008080D
:1014A000088870000030282422213000003008888D
:1014B000884830000018202020110E000000C020B5
:1014C00010F8000000070424243F240000F80888D6
:1014D000880808000019212020110E0000E0108863
:1014E00088180000000F112020110E000038080895
:1014F000C83808000000003F0000000000708808A5
:1015000008887000001C222121221C0000E0100825
:101510000810E0000000312222110F00000000C07E
:10152000C00000000000003030000000000000801B
:10153000000000000000806000000000000080400B
:101540002010080000010204081020004040404024
:101550004040400004040404040404000008102077
:1015600040800000002010080402010000704808BC
:101570000808F0000000003036010000C030C82824
:10158000E810E0000718272423140B000000C038DF
:10159000E0000000203C23020227382008F8888859
:1015A00088700000203F202020110E00C030080865
:1015B00008083800071820202010080008F808083C
:1015C0000810E000203F202020100F0008F8888835
:1015D000E8081000203F20202320180008F8888801
:1015E000E8081000203F200003000000C030080879
:1015F0000838000007182020221E020008F8080002
:101600000008F808203F210101213F20000808F8C8
:10161000080800000020203F2020000000000808EB
:10162000F8080800C08080807F00000008F888C0AB
:1016300028180800203F20012638200008F808005C
:1016400000000000203F20202020300008F8F80093
:10165000F8F80800203F003F003F200008F830C0A5
:101660000008F808203F200007183F00E010080895
:101670000810E0000F10202020100F0008F80808C4
:101680000808F000203F210101010000E0100808D7
:101690000810E0000F18242438504F0008F88888FC
:1016A00088887000203F2000030C302000708808DC
:1016B000080838000038202121221C00180808F8EA
:1016C000080818000000203F2000000008F808006B
:1016D0000008F808001F202020201F00087888003C
:1016E00000C83808000007380E010000F80800F8AC
:1016F0000008F800033C0700073C03000818688056
:101700008068180820302C03032C30200838C800CB
:10171000C83808000000203F20000000100808081A
:10172000C83808002038262120201800000000FEBC
:10173000020202000000007F40404000000C30C068
:1017400000000000000000010638C0000002020294
:10175000FE000000004040407F0000000000040246
:101760000202040000000000000000000000000071
:101770000000000080808080808080800002020461
:101780000000000000000000000000000000808059
:10179000808000000019242222223F2008F80080C7
:1017A00080000000003F112020110E00000000808A
:1017B00080800000000E1120202011000000008019
:1017C0008088F800000E112020103F20000080804B
:1017D00080800000001F222222221300008080F05F
:1017E000888888180020203F20200000000080808A
:1017F00080808000006B94949493600008F80080CF
:1018000080800000203F210000203F200080989829
:10181000000000000020203F202000000000008089
:101820009898000000C08080807F000008F80000C9
:1018300080808000203F24022D302000000808F81E
:10184000000000000020203F2020000080808080D9
:1018500080808000203F20003F20003F808000806B
:1018600080800000203F210000203F200000808079
:1018700080800000001F202020201F00808000802A
:101880008000000080FFA12020110E0000000080D9
:1018900080808000000E112020A0FF8080808000CA
:1018A0008080800020203F212000010000008080F7
:1018B000808080000033242424241900008080E0EC
:1018C000808000000000001F2020000080800000B9
:1018D00000808000001F202020103F20808080009A
:1018E0000080808000010E300806010080800080AA
:1018F000008080800F300C030C300F0000808000CF
:10190000808080000020312E0E31200080808000F9
:101910000080808080818E701806010000808080A9
:10192000808080000021302C222130000000000047
:10193000807C020200000000003F404000000000E8
:10194000FF00000000000000FF0000000002027C19
:10195000800000000040403F000000000006010140
:0C1960000202040400000000000000006F
:04196C0075010008F9
:041970004D0100081D
:0C197400010000001000000000127A00CA
:040000050800126578
:00000001FF
