:020000040800F2
:1000000000500020ED180008F9020008FB0200086B
:10001000FD020008FF0200080103000800000000C4
:1000200000000000000000000000000003030008C2
:10003000050300080000000007030008090300088A
:100040003519000835190008351900083519000858
:100050003519000835190008351900083519000848
:100060003519000835190008351900083519000838
:100070003519000835190008351900083519000828
:100080003519000835190008351900083519000818
:100090003519000835190008351900083519000808
:1000A00035190008351900083519000835190008F8
:1000B00035190008351900083519000835190008E8
:1000C00035190008351900083519000835190008D8
:1000D00035190008351900083519000835190008C8
:1000E000351900083519000835190008000000000E
:1000F0000000000000000000000000000000000000
:0C01000000000000000000005FF808F1A3
:10010C000348044B834202D0034B03B1184770479A
:10011C000C0000200C000020000000000548064BDD
:10012C001B1AD90F01EBA301491002D0034B03B1E9
:10013C00184770470C0000200C0000200000000045
:10014C0010B5064C237843B9FFF7DAFF044B13B113
:10015C000448AFF300800123237010BD0C00002075
:10016C00000000009019000808B5054B1BB10549AB
:10017C000548AFF30080BDE80840FFF7CFBF00BFD4
:10018C0000000000100000209019000882B00A4BFB
:10019C009A6942F004029A619A6902F00402009290
:1001AC00009A9A6942F008029A619B6903F008036D
:1001BC000193019B02B070470010024070B50024FF
:1001CC0026460DE0094D284601F056FA0A2128462C
:1001DC0001F08EF8284601F04DF906440134E4B2E2
:1001EC000F2CEFD9C6F30F1070BD00BF28000020F4
:1001FC0072B6FEE700B585B000230193029303931A
:10020C000F48104A02608360037303754FF4602239
:10021C00C26143600123036101F0CEFA58B9019029
:10022C00012302930723039301A9054801F026F942
:10023C0018B905B000BDFFF7DBFFFFF7D9FF00BF12
:10024C00280000200024014010B594B00AAC2822EC
:10025C000021204601F069FB0023059306930793C8
:10026C0008930993019302930393049302230A9333
:10027C0001230E9310230F93204600F007F998B931
:10028C000F2305930146069007900890099005A846
:10029C0000F030FB50B902230193039001A800F049
:1002AC00F5FB28B914B010BDFFF7A2FFFFF7A0FFB4
:1002BC00FFF79EFF08B500F09BF8FFF7C5FFFFF7AF
:1002CC0065FFFFF797FF00F0BFFF074A01210846C3
:1002DC0000F076FFFFF772FF024604230121022093
:1002EC0000F08AFFF1E700BFA8190008FEE7FEE75F
:1002FC00FEE7FEE7FEE770477047704708B500F071
:10030C0089F808BD82B00E4B9A6942F001029A61DD
:10031C009A6902F001020092009ADA6942F0805266
:10032C00DA61DB6903F080530193019B054A536842
:10033C0023F0E06343F08063536002B0704700BF6A
:10034C00001002400000014000B587B0002302936A
:10035C000393049305930268104B9A4201D007B0A3
:10036C0000BD03F56C439A6942F400729A619A6974
:10037C0002F400720092009A9A6942F004029A61A7
:10038C009B6903F004030193019B01230293032354
:10039C00039302A9024800F075FCE0E70024014039
:1003AC000008014010B504460E4B18680E4B1A7825
:1003BC004FF47A73B3FBF2F3B0FBF3F000F0B4FD3F
:1003CC0068B90F2C01D901200AE0024621464FF0F2
:1003DC00FF3000F099FD054B1C60002000E001206F
:1003EC0010BD00BF08000020000000200400002009
:1003FC0008B5074A136843F010031360032000F09C
:10040C0071FD0F20FFF7CEFFFFF77CFF002008BD2A
:10041C0000200240034A1168034B1B780B44136005
:10042C00704700BF5800002000000020014B1868E6
:10043C00704700BF5800002038B50446FFF7F6FFA0
:10044C000546B4F1FF3F02D0044B1B781C44FFF768
:10045C00EDFF401BA042FAD338BD00BF00000020C6
:10046C0082B0084B1B68084AA2FB03235B0A00FB03
:10047C0003F3019300BF019B5A1E0192002BF9D18B
:10048C0002B0704708000020D34D6210002800F025
:10049C00F38170B582B00446036813F0010F2CD0C1
:1004AC009A4B5B6803F00C03042B1DD0974B5B68D5
:1004BC0003F00C03082B12D06368B3F5803F41D0D6
:1004CC00002B55D103F1804303F504331A6822F451
:1004DC0080321A601A6822F480221A6037E08B4B43
:1004EC005B6813F4803FE7D0884B1B6813F4003F24
:1004FC0003D06368002B00F0C181236813F0020F56
:10050C0075D0824B5B6813F00C0F5FD07F4B5B6830
:10051C0003F00C03082B54D02369002B00F08A80C5
:10052C007B4B01221A60FFF781FF0546774B1B6856
:10053C0013F0020F75D1FFF779FF401B0228F5D994
:10054C000320A0E1714A136843F48033136063689D
:10055C0043B3FFF76BFF05466C4B1B6813F4003F6E
:10056C00CBD1FFF763FF401B6428F5D903208AE148
:10057C00B3F5A02F09D0654B1A6822F480321A60AB
:10058C001A6822F480221A60E1E703F18043A3F594
:10059C003C331A6842F480221A601A6842F48032A2
:1005AC001A60D4E7FFF742FF0546584B1B6813F45B
:1005BC00003FA2D0FFF73AFF401B6428F5D9032077
:1005CC0061E1524B5B6813F4803FA5D14F4B1B6824
:1005DC0013F0020F03D02369012B40F051814B4AD9
:1005EC00136823F0F803616943EAC10313602368BD
:1005FC0013F0080F33D0A369002B5DD0444B0122BC
:10060C00C3F88024FFF712FF0546404B5B6A13F0DA
:10061C00020F21D1FFF70AFF401B0228F5D9032056
:10062C0031E13A4A136823F0F803616943EAC103E4
:10063C001360DCE7364B00221A60FFF7F7FE054625
:10064C00324B1B6813F0020FD1D0FFF7EFFE401BAB
:10065C000228F5D9032016E10120FFF701FF2368DA
:10066C0013F0040F00F09880284BDB6913F0805FC7
:10067C0035D1264BDA6942F08052DA61DB6903F03E
:10068C0080530193019B01231E46224B1B6813F4DC
:10069C00807F27D0E368012B3ED0002B54D103F18F
:1006AC00804303F504331A6A22F001021A621A6AB3
:1006BC0022F004021A6234E0154B0022C3F88024A5
:1006CC00FFF7B4FE0546114B5B6A13F0020FC6D060
:1006DC00FFF7ACFE401B0228F5D90320D3E0002322
:1006EC001E46D2E70B4A136843F480731360FFF77E
:1006FC009DFE0546074B1B6813F4807FCAD1FFF79C
:10070C0095FE401B6428F5D90320BCE00010024084
:10071C0000004242007000405F4A136A43F001033C
:10072C001362E36833B3FFF781FE05465A4B1B6A2D
:10073C0013F0020F2FD1FFF779FE401B41F28833E3
:10074C009842F3D903209EE0052B09D0524B1A6A2C
:10075C0022F001021A621A6A22F004021A62E0E71D
:10076C004D4B1A6A42F004021A621A6A42F00102F4
:10077C001A62D6E7FFF75AFE0546474B1B6A13F081
:10078C00020F08D0FFF752FE401B41F2883398420B
:10079C00F3D9032077E0E6B9E369002B72D03E4A27
:1007AC00526802F00C02082A56D0022B17D03B4B91
:1007BC0000221A66FFF73AFE0446374B1B6813F00B
:1007CC00007F47D0FFF732FE001B0228F5D903202B
:1007DC0059E0314AD36923F08053D361DCE72F4BC6
:1007EC0000221A66FFF722FE05462B4B1B6813F0FE
:1007FC00007F06D0FFF71AFE401B0228F5D9032014
:10080C0041E0236AB3F5803F1AD023494B6823F4A7
:10081C007413226A606A024313434B601F4B01221C
:10082C001A66FFF703FE04461B4B1B6813F0007F90
:10083C000ED1FFF7FBFD001B0228F5D9032022E0A7
:10084C00154A536823F40033A1680B435360DCE76B
:10085C00002018E0002016E0012B16D00E4B5B6830
:10086C0003F48031226A914211D103F47013626A4D
:10087C0093420ED1002006E001207047012002E0D7
:10088C00012000E0184602B070BD0120FBE70120FA
:10089C00F9E70120F7E700BF0010024000004242D8
:1008AC000F4B5B6803F00C02082A01D00D4870470F
:1008BC00C3F383420C49885C13F4803F0BD0084B84
:1008CC005B68C3F34043094AD35C064A02FB00F061
:1008DC00B0FBF3F07047064B03FB00F0704700BF12
:1008EC000010024000127A00BC190008B819000868
:1008FC0000093D00002800F0A08070B50D460446AC
:10090C00524B1B6803F007038B420BD24F4A136800
:10091C0023F007030B431360136803F007038B42A8
:10092C0040F08D80236813F0020F17D013F0040FE2
:10093C0004D0474A536843F4E0635360236813F0D0
:10094C00080F04D0424A536843F460535360404A42
:10095C00536823F0F003A1680B435360236813F032
:10096C00010F31D06368012B20D0022B25D0384ADF
:10097C00126812F0020F64D035494A6822F0030263
:10098C0013434B60FFF752FD0646314B5B6803F097
:10099C000C036268B3EB820F16D0FFF747FD801B88
:1009AC0041F288339842F0D9032045E0284A126876
:1009BC0012F4003FE0D101203EE0254A126812F00B
:1009CC00007FD9D1012037E0204B1B6803F00703CF
:1009DC00AB420AD91D4A136823F007032B4313605B
:1009EC00136803F00703AB422DD1236813F0040FF7
:1009FC0006D0174A536823F4E063E1680B43536055
:100A0C00236813F0080F07D0114A536823F460537E
:100A1C00216943EAC1035360FFF742FF0C4B5B684B
:100A2C00C3F303130B4AD35CD8400B4B18600B4B2E
:100A3C001868FFF7B7FC002070BD0120704701203B
:100A4C00FAE70120F8E70120F6E700BF002002409A
:100A5C0000100240E81900080800002004000020E3
:100A6C00014B1868704700BF0800002008B5FFF75D
:100A7C00F7FF044B5B68C3F3C223034AD35CD84033
:100A8C0008BD00BF00100240E019000870B582B02C
:100A9C000446036813F0010F39D0414BDB6913F0A6
:100AAC00805F4DD13E4BDA6942F08052DA61DB69EE
:100ABC0003F080530193019B01231E46394B1B68A5
:100ACC0013F4807F3FD0364B1B6A13F4407315D060
:100ADC00626802F440729A4210D0314A136A23F4CD
:100AEC00407031494FF0010CC1F840C44FF0000C7C
:100AFC00C1F840C4106213F0010F38D1284A136AB0
:100B0C0023F4407361680B431362002E40D12368B9
:100B1C0013F0020F06D0224A536823F44043A16815
:100B2C000B435360236813F0100F36D01C4A5368E4
:100B3C0023F48003E1680B435360002002B070BDC6
:100B4C0000231E46BAE7174A136843F480731360F8
:100B5C00FFF76CFC0546134B1B6813F4807FB2D176
:100B6C00FFF764FC401B6428F5D90320E6E7FFF788
:100B7C005DFC05460A4B1B6A13F0020FBED1FFF752
:100B8C0055FC401B41F288339842F3D90320D5E73A
:100B9C00D36923F08053D361B9E70020CEE700BFBF
:100BAC0000100240007000400000424208B50228CC
:100BBC0051D0102803D0012828D0002055E02B4B11
:100BCC005A68186810F080704FD0C2F383432849DC
:100BDC00C85C12F4803F15D0244B5B68C3F34043D0
:100BEC00244AD25C244BB3FBF2F303FB00F01F4B03
:100BFC005B6813F4800F38D14000204BA3FB00300E
:100C0C00400832E01E4B03FB00F0F0E7174B1A6A6A
:100C1C0002F44073B3F5807F07D0B3F5007F0AD0A0
:100C2C00B3F5407F0FD000201FE012F0020FF4D07C
:100C3C004FF4004019E00D4A526A12F0020FEFD047
:100C4C0049F6404011E0094B186810F400300CD004
:100C5C004FF2244009E0FFF709FF044B5B68C3F334
:100C6C00813301335B00B0FBF3F008BD0010024090
:100C7C00D0190008CC19000800127A00ABAAAAAA55
:100C8C0000093D0070B582B04FF0000EF446A4E0B0
:100C9C00012B28D0022B03D1CB6803F1080E24E0E2
:100CAC001BBB8B68002B65D0012B5CD042614FF0D5
:100CBC00080E1AE0664DAB42F3D00CD8A5F58015A2
:100CCC00AB42EED005F57025AB42EAD0A5F5801508
:100CDC00AB42E6D009E05F4DAB42E2D005F5803582
:100CEC00AB42DED001E0D1F80CE0FF2C45D8064633
:100CFC004FEA8C0233680F25954023EA05030EFA60
:100D0C0002F2134333604B6813F0805F63D0524B95
:100D1C009A6942F001029A619B6903F00103019305
:100D2C00019B4FEA9C02951C4C4B53F825600CF030
:100D3C000305AD000F23AB4026EA0306484B98424F
:100D4C0022D003F58063984263D003F58063984208
:100D5C0061D003F58063984214D0042315E0CB686E
:100D6C0003F10C0EC1E702614FF0080EBDE74FF026
:100D7C00000EBAE74FF0040EB7E7061DACF10802FF
:100D8C009200B7E7032300E00023AB403343023269
:100D9C00324D45F822304B6813F4801F3DD0314A58
:100DAC009368234393604B6813F4001F3BD02D4A88
:100DBC00D3682343D3604B6813F4003F39D0294ADE
:100DCC005368234353604B6813F4803F37D0254A54
:100DDC001368234313600CF1010C0B6833FA0CF20B
:100DEC0033D0012202FA0CF203EA020432EA0303C2
:100DFC00F1D14B68032BBAD07FF64AAF122BAED091
:100E0C003FF658AF112B7FF470AFCB6803F1040E93
:100E1C006BE70123B9E70223B7E7124A936823EA89
:100E2C0004039360BFE70F4AD36823EA0403D3603B
:100E3C00C1E70C4A536823EA04035360C3E7094A29
:100E4C00136823EA04031360C5E702B070BD00BF4A
:100E5C000000221000003110001002400000014080
:100E6C0000080140000401400AB101617047090407
:100E7C0001617047002808DB0901C9B200F160402C
:100E8C0000F5614080F80013704700F00F00090175
:100E9C00C9B2014B1954704714ED00E000B500F0D5
:100EAC000700A0F1030CBCF1040F07D8C0F1070E2A
:100EBC000430062806D84FF0000C03E04FF0040E67
:100ECC004FF0000C4FF0FF3303FA0EF021EA000153
:100EDC0001FA0CF103FA0CF322EA030241EA0200D4
:100EEC0000BD0000074AD36823F4E0631B041B0C0D
:100EFC00000200F4E060034343F0BF6343F40033AB
:100F0C00D360704700ED00E010B50446054BD8687F
:100F1C00C0F30220FFF7C2FF01462046FFF7AAFFED
:100F2C0010BD00BF00ED00E00138B0F1807F0BD2A6
:100F3C004FF0E0235861054AF02182F8231000207D
:100F4C00986107221A6170470120704700ED00E09C
:100F5C00704782B00023019302E0019B013301939F
:100F6C00019B132BF9D902B07047000030B587B044
:100F7C00154B9A6942F008029A619A6902F00802CC
:100F8C000192019ADA6922F40012DA6102A90023B3
:100F9C0002934B608B60CB60C023029301240394BB
:100FAC00032305930494094D2846FFF76BFE224654
:100FBC0040212846FFF758FF224680212846FFF79C
:100FCC0053FF07B030BD00BF00100240000C0140C1
:100FDC0010B50E4C012280212046FFF745FF01225F
:100FEC0040212046FFF740FFFFF7B3FF002280218E
:100FFC002046FFF739FFFFF7ACFF002240212046C7
:10100C00FFF732FFFFF7A5FF10BD00BF000C01403A
:10101C0010B50B4C002280212046FFF725FFFFF76F
:10102C0098FF012240212046FFF71EFFFFF791FF9A
:10103C00012280212046FFF717FFFFF78AFF10BD22
:10104C00000C014070B50646002417E000228021F8
:10105C001C48FFF709FFFFF77CFF1A4D01224021C6
:10106C002846FFF701FFFFF774FF002240212846B6
:10107C00FFF7FAFEFFF76DFF0134E4B2072C09D835
:10108C00802323411E42E1D0012280210D48FFF72D
:10109C00EBFEE0E70B4C012280212046FFF7E4FE3B
:1010AC00FFF757FF012240212046FFF7DDFEFFF737
:1010BC0050FF002240212046FFF7D6FEFFF749FFE4
:1010CC0070BD00BF000C014010B50446FFF780FF57
:1010DC007820FFF7B7FF0020FFF7B4FF2046FFF79B
:1010EC00B1FFFFF795FF10BD10B50446FFF770FF79
:1010FC007820FFF7A7FF4020FFF7A4FF2046FFF75B
:10110C00A1FFFFF785FF10BD10B50C4640F0B000F5
:10111C00FFF7DAFF200940F01000FFF7D5FF04F0CD
:10112C000F00FFF7D1FF10BD38B5002501E00135E8
:10113C00EDB2072D0DD800212846FFF7E5FF00245E
:10114C0014F0800FF3D10020FFF7CEFF0134E4B28E
:10115C00F6E738BDF8B5064615464F1EFF00FFB240
:10116C0001384000394600F0FE00FFF7CDFF0024A7
:10117C0009E0A5F12002114B03EB0213185DFFF7F8
:10118C00B3FF0134E4B2072CF3D97000C0B20138BC
:10119C003946C0B2FFF7B8FF00240BE0A5F12001DF
:1011AC0004F10802054B03EB0113985CFFF79CFF5D
:1011BC000134E4B2072CF1D9F8BD00BFF8190008CE
:1011CC00F8B507460E461546002406E0A119C9B22B
:1011DC003846FFF7BFFF0134E4B22A5D002AF5D18F
:1011EC00F8BD0246012002E002FB00F019464B1E3E
:1011FC000029F9D1704700002DE9F8438146884653
:10120C0017461E46002419E004EB0805EDB2311B0D
:10121C0001390A20FFF7E5FFB7FBF0F0094AA2FB02
:10122C000032D20802EB8202A0EB42023032D2B280
:10123C0029464846FFF78EFF0134E4B2B442E3D3AB
:10124C00BDE8F883CDCCCCCC08B5C820FFF7F4F8BA
:10125C00FFF78CFEAE20FFF737FFD520FFF734FFEA
:10126C008020FFF731FFA820FFF72EFF3F20FFF76C
:10127C002BFFD320FFF728FF0020FFF725FF40208E
:10128C00FFF722FFA120FFF71FFFC820FFF71CFF6D
:10129C00DA20FFF719FF1220FFF716FF8120FFF766
:1012AC0013FFCF20FFF710FFD920FFF70DFFF12020
:1012BC00FFF70AFFDB20FFF707FF3020FFF704FFE3
:1012CC002020FFF701FF0220FFF7FEFEA420FFF70E
:1012DC00FBFEA620FFF7F8FE8D20FFF7F5FE14208D
:1012EC00FFF7F2FEAF20FFF7EFFEFFF71DFF08BD83
:1012FC00F0B583B005460C4600230193FFF796F832
:10130C002B689A6812F4807F23D107465A6812F42E
:10131C00807F03D1DB6A13F4700F29D0504B1E6809
:10132C000220FFF743FCB6FBF0F62B6819694D4A17
:10133C00114236D1D96802F15C42114231D119699E
:10134C00494A114240D1DA68484B1A423ED029230F
:10135C0041E0AB6A43F02003AB62002385F82430F4
:10136C00012003B0F0BD2B681B6813F0020F0FD0E7
:10137C002B681B6813F0020F4FD1B4F1FF3FF7D06D
:10138C00002CF0D0FFF752F8C31BA342F0D9EAE7C8
:10139C00AB6A43F00403AB62002385F824300320CE
:1013AC00DFE71969304A114204D1D96802F16E4263
:1013BC0011420DD019692E4A0A405AB9DA682C4BE1
:1013CC0013405BB1FC2306E0292304E0142302E064
:1013DC00542300E0FC2303FB06F607E05423FAE752
:1013EC00019BB34210D3019B01330193019BB34288
:1013FC0013D2B4F1FF3FF6D0002CF1D0FFF716F862
:10140C00C01BA042EFD9EBE7AB6A43F00403AB621D
:10141C00002385F824300320A3E72B686FF0120219
:10142C001A60AB6A43F40073AB622B689B6803F4DD
:10143C006023B3F5602F01D0002092E7287B60B9C0
:10144C00AB6A23F48073AB62AB6A13F4805F88D110
:10145C00AB6A43F00103AB6283E7002081E700BF76
:10146C000800002024499224922449129224490015
:10147C00499224000368D86C7047000000B583B013
:10148C000022019290F82420012A00F0A880034643
:10149C00012280F824204A68062A34D8D0F800E0CB
:1014AC00DEF83400013A02EB82024FF01F0C0CFA0A
:1014BC0002FC20EA0C00D1F800C00CFA02F2024344
:1014CC00CEF834200A68092A49D9D3F800E0DEF8AE
:1014DC000C000A3A02EB42024FF0070C0CFA02FC29
:1014EC0020EA0C00D1F808C00CFA02F20243CEF844
:1014FC000C200A68103A012A45D90020002283F8F2
:10150C00242003B000BD0C2A14D8D0F800E0DEF87B
:10151C003000073A02EB82024FF01F0C0CFA02FC6F
:10152C0020EA0C00D1F800C00CFA02F20243CEF80B
:10153C003020C7E7D0F800E0DEF82C000D3A02EBC3
:10154C0082024FF01F0C0CFA02FC20EA0C00D1F8BE
:10155C0000C00CFA02F20243CEF82C20B2E7D3F80A
:10156C0000E0DEF8100002EB42024FF0070C0CFA20
:10157C0002FC20EA0C00D1F808C00CFA02F202437B
:10158C00CEF81020B5E71A681648824205D09A6A40
:10159C0042F020029A620120B0E7906810F4000F2C
:1015AC001BD1906840F4000090600A68102A01D0AA
:1015BC000020A3E70C4A12680C49A1FB0212920C02
:1015CC0002EB82025200019202E0019A013A01926E
:1015DC00019A002AF9D1104690E700208EE70220EC
:1015EC008FE700BF002401400800002083DE1B436E
:1015FC0030B583B00023019303689A6812F0010F91
:10160C0033D104469A6842F001029A60184B1B6869
:10161C00184AA2FB03239B0C019302E0019B013BA4
:10162C000193019B002BF9D1FEF700FF05462368BF
:10163C009B6813F0010F16D1FEF7F8FE431B022B2B
:10164C00F5D923689B6813F0010FF0D1A36A43F01E
:10165C001003A362E36A43F00103E362002384F8FE
:10166C002430012002E0002000E0002003B030BD57
:10167C000800002083DE1B4390F82430012B68D037
:10168C0010B50446012380F82430FFF7B1FF002881
:10169C005BD1A36A23F4407323F0010343F48073FA
:1016AC00A36223682C4A934227D0A26A22F48012A8
:1016BC00A2625A6812F4806F05D0A26A22F44052DA
:1016CC0042F48052A262A26A12F4805F2BD0E26ACA
:1016DC0022F00602E262002284F824206FF002025B
:1016EC001A6023689A6802F46022B2F5602F1DD04C
:1016FC009A6842F480129A602AE0A2F580625268DD
:10170C0012F4702FD1D0A26A42F48012A262134A52
:10171C00526812F4806FD6D0A26A22F4405242F47E
:10172C008052A262CFE70022E262D4E70A4A9342D7
:10173C0004D09A6842F4A0029A6009E0A2F5806293
:10174C00526812F4702FD3D1F3E7002384F82430BD
:10175C0010BD0220704700BF00280140002401404A
:10176C0038B503689A6812F0010F01D1002038BD1A
:10177C0004469A6822F001029A60FEF757FE05466D
:10178C0023689B6813F0010F13D0FEF74FFE431B29
:10179C00022BF5D923689B6813F0010FF0D0A36AD4
:1017AC0043F01003A362E36A43F00103E3620120F8
:1017BC00DDE70020DBE70000002800F08B8010B58F
:1017CC000446836A002B5CD02046FFF7C9FFA36A4E
:1017DC0013F0100378D1002876D1A26A22F4885233
:1017EC0022F0020242F00202A2626268E1690A433C
:1017FC00217B42EA4102D4F808C0BCF5807F03D0BB
:10180C00BCF1010F43D09C4694F814E0BEF1010FDB
:10181C0040D0D4F800E0DEF8041021F4694141EA2C
:10182C000C01CEF80410D4F800C0DCF808E02A490A
:10183C000EEA01011143CCF80810A168B1F5807FC4
:10184C0001D0012902D12369013B1B05D4F800C04A
:10185C00DCF82C1021F470010B43CCF82C302368ED
:10186C0099681E4B0B409A4225D0A36A23F01203B1
:10187C0043F01003A362E36A43F00103E362012027
:10188C0027E0C36280F82430FEF75EFD9CE74FF43E
:10189C00807CB9E731B9A16901394CEA413141F495
:1018AC00006CB6E7A16A41F02001A162E16A41F047
:1018BC000101E162ADE70023E362A36A23F00303B5
:1018CC0043F00103A36204E0A36A43F01003A36294
:1018DC00012010BD01207047FDF7E1FFFE0E1FFF38
:1018EC00FFF736FB0B480C490C4A002302E0D45896
:1018FC00C4500433C4188C42F9D3094A094C002350
:10190C0001E013600432A242FBD300F017F8FEF79B
:10191C00D1FC7047000000200C000020F01F0008D4
:10192C000C0000205C000020FEE7034602449342BA
:10193C0000D1704703F8011BF9E7000070B50026D1
:10194C000C4C0D4B1D1BB6EBA50F09D1002600F05E
:10195C0019F80A4C0A4B1D1BB6EBA50F05D170BD2F
:10196C0054F8043B98470136EDE754F8043B98478C
:10197C000136F1E7E81F0008E81F0008E81F00081F
:10198C00EC1F0008F8B500BFF8BC08BC9E467047B9
:0C199C00F8B500BFF8BC08BC9E467047C0
:1019A8004C696768742056616C75653A00000000E0
:1019B8000102000002030405060708090A0B0C0DC2
:1019C8000E0F1010010200000203040506070809A3
:1019D8000A0B0C0D0E0F101000000000010203048A
:1019E80000000000000000000102030406070809C7
:1019F80000000000000000000000000000000000DF
:101A0800000000F800000000000000333000000073
:101A180000100C06100C060000000000000000007A
:101A280040C07840C0784000043F04043F040400EC
:101A3800007088FC08300000001820FF211E0000FC
:101A4800F008F000E018000000211C031E211E0011
:101A580000F00888700000001E2123241927211097
:101A680010160E000000000000000000000000003A
:101A7800000000E0180402000000000718204000E1
:101A880000020418E00000000040201807000000D1
:101A9800404080F0804040000202010F0102020035
:101AA800000000F0000000000101011F0101010019
:101AB800000000000000000080B07000000000007E
:101AC8000000000000000000000101010101010107
:101AD800000000000000000000303000000000009E
:101AE8000000000080601804006018060100000073
:101AF80000E010080810E000000F102020100F0070
:101B0800001010F8000000000020203F20200000F6
:101B1800007008080888700000302824222130004E
:101B280000300888884830000018202020110E0056
:101B38000000C02010F8000000070424243F2400FF
:101B480000F80888880808000019212020110E00D4
:101B580000E0108888180000000F112020110E00E6
:101B680000380808C83808000000003F00000000DE
:101B78000070880808887000001C222121221C009F
:101B880000E010080810E0000000312222110F00C8
:101B9800000000C0C000000000000030300000005D
:101BA80000000080000000000000806000000000CD
:101BB80000008040201008000001020408102000E6
:101BC8004040404040404000040404040404040031
:101BD80000081020408000000020100804020100C6
:101BE800007048080808F0000000003036010000C6
:101BF800C030C828E810E0000718272423140B0079
:101C08000000C038E0000000203C230202273820F2
:101C180008F8888888700000203F202020110E00D6
:101C2800C0300808080838000718202020100800CD
:101C380008F808080810E000203F202020100F00B6
:101C480008F88888E8081000203F20202320180082
:101C580008F88888E8081000203F200003000000EA
:101C6800C03008080838000007182020221E02008B
:101C780008F808000008F808203F210101213F204A
:101C8800000808F8080800000020203F2020000075
:101C980000000808F8080800C08080807F00000065
:101CA80008F888C028180800203F2001263820009E
:101CB80008F8080000000000203F20202020300005
:101CC80008F8F800F8F80800203F003F003F20001F
:101CD80008F830C00008F808203F200007183F0027
:101CE800E01008080810E0000F10202020100F0056
:101CF80008F808080808F000203F21010101000049
:101D0800E01008080810E0000F18242438504F008D
:101D180008F8888888887000203F2000030C30204D
:101D280000708808080838000038202121221C008B
:101D3800180808F8080818000000203F20000000D4
:101D480008F808000008F808001F202020201F00BD
:101D58000878880000C83808000007380E0100001D
:101D6800F80800F80008F800033C0700073C0300E7
:101D7800081868808068180820302C03032C30204D
:101D88000838C800C83808000000203F20000000BC
:101D980010080808C8380800203826212020180014
:101DA800000000FE020202000000007F40404000E8
:101DB800000C30C000000000000000010638C00020
:101DC80000020202FE000000004040407F000000C8
:101DD80000000402020204000000000000000000ED
:101DE80000000000000000008080808080808080EB
:101DF80000020204000000000000000000000000D3
:101E080000008080808000000019242222223F20C8
:101E180008F8008080000000003F112020110E000B
:101E28000000008080800000000E1120202011009A
:101E3800000000808088F800000E112020103F204C
:101E48000000808080800000001F222222221300D0
:101E5800008080F0888888180020203F202000001B
:101E68000000808080808000006B949494936000D0
:101E780008F8008080800000203F210000203F20DB
:101E880000809898000000000020203F20200000DB
:101E9800000000809898000000C08080807F0000CB
:101EA80008F8000080808000203F24022D302000A8
:101EB800000808F8000000000020203F2020000053
:101EC8008080808080808000203F20003F20003F6D
:101ED8008080008080800000203F210000203F207B
:101EE8000000808080800000001F202020201F002C
:101EF800808000808000000080FFA12020110E005B
:101F08000000008080808000000E112020A0FF804B
:101F1800808080008080800020203F2120000100F8
:101F2800000080808080800000332424242419004D
:101F3800008080E0808000000000001F202000005A
:101F48008080000000808000001F202020103F209B
:101F5800808080000080808000010E30080601002B
:101F680080800080008080800F300C030C300F00D0
:101F780000808000808080000020312E0E312000FB
:101F8800808080000080808080818E70180601002B
:101F980000808080808080000021302C2221300049
:101FA80000000000807C020200000000003F40406A
:101FB80000000000FF00000000000000FF0000001B
:101FC8000002027C800000000040403F000000004A
:101FD80000060101020204040000000000000000E5
:041FE8007501000877
:041FEC004D0100089B
:0C1FF000010000001000000000127A0048
:04000005080018EDEA
:00000001FF
