:020000040800F2
:100000000028002095160008E9020008EB0200080D
:10001000ED020008EF020008F102000800000000F5
:10002000000000000000000000000000F3020008D3
:10003000F502000800000000F7020008F9020008BD
:10004000DD160008DD160008DD160008DD160008C4
:10005000DD160008DD160008DD160008DD160008B4
:10006000DD160008DD160008DD160008DD160008A4
:10007000DD160008DD160008DD160008DD16000894
:10008000DD160008DD160008DD160008DD16000884
:10009000DD1600080000000000000000DD1600086A
:1000A0000000000000000000000000000000000050
:1000B000DD160008DD160008DD160008DD16000854
:1000C000DD160008DD160008DD160008DD16000844
:1000D000DD160008DD160008DD160008DD16000834
:1000E000DD160008DD160008DD160008000000001F
:1000F0000000000000000000000000000000000000
:0C01000000000000000000005FF808F1A3
:10010C000348044B834202D0034B03B1184770479A
:10011C005C0000205C000020000000000548064B3D
:10012C001B1AD90F01EBA301491002D0034B03B1E9
:10013C00184770475C0000205C00002000000000A5
:10014C0010B5064C237843B9FFF7DAFF044B13B113
:10015C000448AFF300800123237010BD5C00002025
:10016C00000000008420000808B5054B1BB10549B0
:10017C000548AFF30080BDE80840FFF7CFBF00BFD4
:10018C0000000000600000208420000870B588B0DA
:10019C0004AD00240494059406940794174B9A69B3
:1001AC0042F020029A619A6902F020020192019AAF
:1001BC009A6942F004029A619A6902F0040202926E
:1001CC00029A9A6942F008029A619B6903F008034B
:1001DC000393039B0A4E2246B021304600F0A4FF45
:1001EC00B023049301230593069402230793294615
:1001FC00304600F031FE08B070BD00BF0010024068
:10020C000008014038B50546002306E05C1CE4B24A
:10021C00E95C204601F0C8F92346072BF6D938BD16
:10022C0072B6FEE708B50D480D4B03604FF48273B0
:10023C00436000238360C360036143614FF4007229
:10024C008261C3610362436283620A23C36200F06A
:10025C0051F900B908BDFFF7E3FF00BF780000209B
:10026C000030014010B590B006AC28220021204689
:10027C0001F066FA00230193029303930493059310
:10028C000223069301230A9310230B93204600F0BC
:10029C00F9FA60B90F230193014602900390049080
:1002AC00059001A800F022FD18B910B010BDFFF7A1
:1002BC00B7FFFFF7B5FF000008B500F095FAFFF7A0
:1002CC00D1FFFFF763FFFFF7ADFF01F0F5F8024830
:1002DC00FFF798FFFEE700BF9C200008FEE7FEE753
:1002EC00FEE7FEE7FEE770477047704708B500F081
:1002FC008DFA08BD82B00E4B9A6942F001029A61E8
:10030C009A6902F001020092009ADA6942F0805276
:10031C00DA61DB6903F080530193019B054A536852
:10032C0023F0E06343F08063536002B0704700BF7A
:10033C00001002400000014000B587B0002302937A
:10034C000393049305930268194B9A4201D007B0AA
:10035C0000BD03F560439A6942F480529A619A6930
:10036C0002F480520092009A9A6942F008029A6153
:10037C009B6903F008030193019B2823029302233A
:10038C0003930323059302A90A4800F065FD10238B
:10039C00029300230393049302A9064800F05CFD2A
:1003AC00054A536843F0E06343F001035360CEE722
:1003BC0000300140000C01400000014008B502680B
:1003CC00064B9A4200D008BD054A936923F480532A
:1003DC0093613821034800F02DFEF4E70030014012
:1003EC0000100240000C01402DE9F04383B004469C
:1003FC000F4616461D4600F015FA0A9B1B1A03EB16
:10040C00050800F00FFA8146284B1B68C3F3CB3369
:10041C0008FB03F3019323689B6837EA03030CBFC3
:10042C0001230023B3423DD0B5F1FF3FF3D000F0E0
:10043C00F9F94B46C01A404507D2019A02B142461F
:10044C00019B013B01939046E5E72268536823F03A
:10045C00E00353606368B3F5827F0BD0A36AB3F5F6
:10046C00005F14D0012384F85130002384F85030FD
:10047C00032018E0A368B3F5004F02D0B3F5806FEA
:10048C00ECD12268136823F040031360E6E722687E
:10049C00136823F4005313602268136843F4005369
:1004AC001360DFE7002003B0BDE8F08308000020F4
:1004BC0070B582B004460B460D46164600920122DA
:1004CC000221FFF791FF48B900962B460246802186
:1004DC002046FFF789FF38B902B070BD636D43F059
:1004EC00200363650320F7E7636D43F02003636526
:1004FC000320F1E7002856D010B50446436A33B9FF
:10050C004368B3F5827F05D00023C36102E000236A
:10051C00036143610023A36294F85130002B3CD05B
:10052C00022384F851302268136823F040031360CF
:10053C00636803F48273A26802F404421343E26812
:10054C0002F400621343226902F00202134362694F
:10055C0002F001021343A26902F400721343E26930
:10056C0002F038021343226A02F080021343A26A9B
:10057C0002F40052216813430B60638B226803F072
:10058C00040353602268D36923F40063D361002011
:10059C006065012384F8513010BD84F8503020463A
:1005AC00FFF7CAFEBCE70120704790B110B50446B6
:1005BC00022380F851300268136823F04003136063
:1005CC00FFF7FCFE0020606584F8510084F85000B1
:1005DC0010BD012070472DE9F04383B004468946D5
:1005EC0090461D4600F01EF994F85130012B40F056
:1005FC00CD800646DFB24946002900F0C88042464D
:10060C00002A00F0C48094F85030012B00F0C38015
:10061C00012384F85030032384F8513000236365A0
:10062C00C4F83090A4F83480A4F83680A363A38770
:10063C00E38763642364A368B3F5004F1ED023687B
:10064C001A6812F0400F03D11A6842F040021A6087
:10065C00E368B3F5006F1CD0636813B14346012BFC
:10066C005FD1226B236812781A73236B01332363D7
:10067C00E38E9BB2013B9BB2E38652E02268136887
:10068C0023F0400313602268136843F48043136023
:10069C00D5E7636813B14346012B15D1226B236850
:1006AC001288DA60236B02332363E38E9BB2013B27
:1006BC009BB2E38608E000F0B5F8801BA84202D399
:1006CC00B5F1FF3F15D1A5B1E38E9BB2002B42D003
:1006DC0023689A6812F0020FEDD0226B1288DA6050
:1006EC00236B02332363E38E9BB2013B9BB2E38605
:1006FC00EAE7012384F85130002384F850300327B3
:10070C0045E0226B12781A73236B01332363B4F820
:10071C0036C01FFA8CFC0CF1FF3C1FFA8CFCA4F8C1
:10072C0036C0E38E9BB2B3B123689A6812F0020F05
:10073C00E7D100F077F8801BA84202D3B5F1FF3F58
:10074C0001D1002DEDD1012384F85130002384F820
:10075C00503003271BE0324629462046FFF7A8FEFF
:10076C0008B120236365A36833B901932368DA6861
:10077C0001929B680193019B012384F85130002363
:10078C0084F85030636D13B91F4600E002273846D9
:10079C0003B0BDE8F0830227F9E7000010B504466A
:1007AC000E4B18680E4B1A784FF47A73B3FBF2F3B6
:1007BC00B0FBF3F000F018FD68B90F2C01D9012043
:1007CC000AE0024621464FF0FF3000F0FDFC054BDD
:1007DC001C60002000E0012010BD00BF08000020BC
:1007EC00000000200400002008B5074A136843F0FD
:1007FC0010031360032000F0D5FC0F20FFF7CEFF91
:10080C00FFF778FD002008BD00200240034A116864
:10081C00034B1B780B441360704700BFD0000020C3
:10082C0000000020014B1868704700BFD00000206A
:10083C0038B50446FFF7F6FF0546B4F1FF3F02D08A
:10084C00044B1B781C44FFF7EDFF401BA042FAD36E
:10085C0038BD00BF0000002082B0084B1B68084A5E
:10086C00A2FB03235B0A00FB03F3019300BF019B74
:10087C005A1E0192002BF9D102B0704708000020DB
:10088C00D34D6210002800F0F38170B582B004469D
:10089C00036813F0010F2CD09A4B5B6803F00C0328
:1008AC00042B1DD0974B5B6803F00C03082B12D064
:1008BC006368B3F5803F41D0002B55D103F18043E1
:1008CC0003F504331A6822F480321A601A6822F491
:1008DC0080221A6037E08B4B5B6813F4803FE7D0C3
:1008EC00884B1B6813F4003F03D06368002B00F0A7
:1008FC00C181236813F0020F75D0824B5B6813F033
:10090C000C0F5FD07F4B5B6803F00C03082B54D0AB
:10091C002369002B00F08A807B4B01221A60FFF7C1
:10092C0081FF0546774B1B6813F0020F75D1FFF75B
:10093C0079FF401B0228F5D90320A0E1714A136806
:10094C0043F480331360636843B3FFF76BFF0546D2
:10095C006C4B1B6813F4003FCBD1FFF763FF401BBC
:10096C006428F5D903208AE1B3F5A02F09D0654B93
:10097C001A6822F480321A601A6822F480221A60F3
:10098C00E1E703F18043A3F53C331A6842F480227B
:10099C001A601A6842F480321A60D4E7FFF742FFFB
:1009AC000546584B1B6813F4003FA2D0FFF73AFFE3
:1009BC00401B6428F5D9032061E1524B5B6813F4AA
:1009CC00803FA5D14F4B1B6813F0020F03D0236956
:1009DC00012B40F051814B4A136823F0F8036169F5
:1009EC0043EAC1031360236813F0080F33D0A369E3
:1009FC00002B5DD0444B0122C3F88024FFF712FF7B
:100A0C000546404B5B6A13F0020F21D1FFF70AFF3A
:100A1C00401B0228F5D9032031E13A4A136823F030
:100A2C00F803616943EAC1031360DCE7364B00222B
:100A3C001A60FFF7F7FE0546324B1B6813F0020FE6
:100A4C00D1D0FFF7EFFE401B0228F5D9032016E1A9
:100A5C000120FFF701FF236813F0040F00F09880CA
:100A6C00284BDB6913F0805F35D1264BDA6942F0F5
:100A7C008052DA61DB6903F080530193019B0123FF
:100A8C001E46224B1B6813F4807F27D0E368012B92
:100A9C003ED0002B54D103F1804303F504331A6A82
:100AAC0022F001021A621A6A22F004021A6234E07D
:100ABC00154B0022C3F88024FFF7B4FE0546114BFA
:100ACC005B6A13F0020FC6D0FFF7ACFE401B022886
:100ADC00F5D90320D3E000231E46D2E70B4A136856
:100AEC0043F480731360FFF79DFE0546074B1B68AC
:100AFC0013F4807FCAD1FFF795FE401B6428F5D90B
:100B0C000320BCE000100240000042420070004094
:100B1C005F4A136A43F001031362E36833B3FFF7D0
:100B2C0081FE05465A4B1B6A13F0020F2FD1FFF7BB
:100B3C0079FE401B41F288339842F3D903209EE0A2
:100B4C00052B09D0524B1A6A22F001021A621A6A5A
:100B5C0022F004021A62E0E74D4B1A6A42F00402DA
:100B6C001A621A6A42F001021A62D6E7FFF75AFEBD
:100B7C000546474B1B6A13F0020F08D0FFF752FED5
:100B8C00401B41F288339842F3D9032077E0E6B951
:100B9C00E369002B72D03E4A526802F00C02082A1C
:100BAC0056D0022B17D03B4B00221A66FFF73AFEA9
:100BBC000446374B1B6813F0007F47D0FFF732FE1B
:100BCC00001B0228F5D9032059E0314AD36923F0E0
:100BDC008053D361DCE72F4B00221A66FFF722FE0D
:100BEC0005462B4B1B6813F0007F06D0FFF71AFE4F
:100BFC00401B0228F5D9032041E0236AB3F5803F5E
:100C0C001AD023494B6823F47413226A606A024396
:100C1C0013434B601F4B01221A66FFF703FE044679
:100C2C001B4B1B6813F0007F0ED1FFF7FBFD001B65
:100C3C000228F5D9032022E0154A536823F4003327
:100C4C00A1680B435360DCE7002018E0002016E09D
:100C5C00012B16D00E4B5B6803F48031226A914253
:100C6C0011D103F47013626A93420ED1002006E096
:100C7C0001207047012002E0012000E0184602B07C
:100C8C0070BD0120FBE70120F9E70120F7E700BF69
:100C9C0000100240000042420F4B5B6803F00C0254
:100CAC00082A01D00D487047C3F383420C49885C75
:100CBC0013F4803F0BD0084B5B68C3F34043094AE5
:100CCC00D35C064A02FB00F0B0FBF3F07047064B16
:100CDC0003FB00F0704700BF0010024000127A00C6
:100CEC00A8200008A420000800093D00002800F0FE
:100CFC00A08070B50D460446524B1B6803F00703E9
:100D0C008B420BD24F4A136823F007030B4313603B
:100D1C00136803F007038B4240F08D80236813F0B7
:100D2C00020F17D013F0040F04D0474A536843F452
:100D3C00E0635360236813F0080F04D0424A5368F1
:100D4C0043F460535360404A536823F0F003A168A6
:100D5C000B435360236813F0010F31D06368012BF0
:100D6C0020D0022B25D0384A126812F0020F64D022
:100D7C0035494A6822F0030213434B60FFF752FDDA
:100D8C000646314B5B6803F00C036268B3EB820FD1
:100D9C0016D0FFF747FD801B41F288339842F0D9FB
:100DAC00032045E0284A126812F4003FE0D10120EC
:100DBC003EE0254A126812F0007FD9D1012037E0BD
:100DCC00204B1B6803F00703AB420AD91D4A13687A
:100DDC0023F007032B431360136803F00703AB42A4
:100DEC002DD1236813F0040F06D0174A536823F44F
:100DFC00E063E1680B435360236813F0080F07D0DE
:100E0C00114A536823F46053216943EAC1035360C8
:100E1C00FFF742FF0C4B5B68C3F303130B4AD35C25
:100E2C00D8400B4B18600B4B1868FFF7B7FC002031
:100E3C0070BD012070470120FAE70120F8E701207E
:100E4C00F6E700BF0020024000100240B820000866
:100E5C00080000200400002070B582B04FF0000E96
:100E6C00F4468CE0012B2AD0022B03D1CB6803F182
:100E7C00080E26E02BBB8B68002B00F0A680012B04
:100E8C0000F09C8042614FF0080E1AE0634DAB42BB
:100E9C00F1D00CD8A5F58015AB42ECD005F570253A
:100EAC00AB42E8D0A5F58015AB42E4D009E05C4D2F
:100EBC00AB42E0D005F58035AB42DCD001E0D1F897
:100ECC000CE0FF2C00F2848006464FEA8C0233685B
:100EDC000F25954023EA05030EFA02F21343336003
:100EEC004B6813F0805F48D04E4B9A6942F0010278
:100EFC009A619B6903F001030193019B4FEA9C02E9
:100F0C00951C494B53F825600CF00305AD000F23DD
:100F1C00AB4026EA0306454B984260D003F580634C
:100F2C0098425ED003F58063984256D00323AB40C1
:100F3C00334302323C4D45F822304B6813F4801F8A
:100F4C0051D03B4A9368234393604B6813F4001FC2
:100F5C004FD0374AD3682343D3604B6813F4003F18
:100F6C004DD0334A5368234353604B6813F4803F8E
:100F7C004BD02F4A1368234313600CF1010C0B6800
:100F8C0033FA0CF247D0012202FA0CF203EA020403
:100F9C0032EA0303F1D14B68032B13D07FF662AF17
:100FAC00122B07D03FF672AF112B8AD1CB6803F10D
:100FBC00040E86E7CB6803F10C0E82E702614FF05A
:100FCC00080E7EE74FF0000E7BE74FF0040E78E73B
:100FDC00061DACF10802920079E70223A7E7002373
:100FEC00A5E70123A3E7124A936823EA040393605D
:100FFC00ABE70F4AD36823EA0403D360ADE70C4A8E
:10100C00536823EA04035360AFE7094A136823EAE1
:10101C0004031360B1E702B070BD00BF00002210E2
:10102C000000311000100240000001400008014097
:10103C00000401408446002265E0022500E0002502
:10104C0005FA00F0A0423CD0FF2B54D86546940022
:10105C0028684FF00F0E0EFA04FE20EA0E004FF037
:10106C00040E0EFA04FE40EA0E002860DCF80C00B8
:10107C0020EA0303CCF80C30013231FA02F340D0F1
:10108C00012393400B40F7D09608B41C234850F82A
:10109C00244002F0030080004FF00F0E0EFA00FE09
:1010AC000EEA04041E4DAC45C9D005F58065AC456F
:1010BC0005D005F58065AC45BFD00325C0E70125FB
:1010CC00BEE71848046824EA03040460446824EA70
:1010DC0003044460C46824EA0304C460846824EAFA
:1010EC00030484600D4C023654F8260020EA0E00EE
:1010FC0044F82600A8E70CF10405A2F10804A400AA
:10110C00A6E770BD013231FA02F305D001239340FA
:10111C000B40F7D070B5B7E7704700BF0000014037
:10112C0000080140000401400AB101617047090444
:10113C0001617047002808DB0901C9B200F1604069
:10114C0000F5614080F80013704700F00F000901B2
:10115C00C9B2014B1954704714ED00E000B500F012
:10116C000700A0F1030CBCF1040F07D8C0F1070E67
:10117C000430062806D84FF0000C03E04FF0040EA4
:10118C004FF0000C4FF0FF3303FA0EF021EA000190
:10119C0001FA0CF103FA0CF322EA030241EA020011
:1011AC0000BD0000074AD36823F4E0631B041B0C4A
:1011BC00000200F4E060034343F0BF6343F40033E8
:1011CC00D360704700ED00E010B50446054BD868BD
:1011DC00C0F30220FFF7C2FF01462046FFF7AAFF2B
:1011EC0010BD00BF00ED00E00138B0F1807F0BD2E4
:1011FC004FF0E0235861054AF02182F823100020BB
:10120C00986107221A6170470120704700ED00E0D9
:10121C007047000008B503460D4A0E490E48006899
:10122C0040B10D4800680344521A934208D80A4A48
:10123C00136008BD0848DFF824C0C0F800C0F0E710
:10124C0000F086FA0C2303604FF0FF30F1E700BF8B
:10125C000028002000040000D400002040030020DF
:10126C0030B583B08DF8072098B10B46044690F842
:10127C0018211546012A0ED10DF107011846E36815
:10128C00984708B903B030BD6369044898472846AD
:10129C00F8E70220F6E70320F4E700BFC8200008B7
:1012AC00B8B130B583B0044690F818311D46012B07
:1012BC0011D18DF80710C36801220DF10701092027
:1012CC00984708B903B030BD63690448984728466D
:1012DC00F8E7022070470320F4E700BFE020000885
:1012EC00B8B130B583B0044690F818311D46012BC7
:1012FC0011D18DF80710C36801220DF107010C20E4
:10130C00984708B903B030BD63690448984728462C
:10131C00F8E7022070470320F4E700BF0021000823
:10132C00B8B130B583B0044690F818311D46012B86
:10133C0011D18DF80710C36801220DF107010F20A0
:10134C00984708B903B030BD6369044898472846EC
:10135C00F8E7022070470320F4E700BF00210008E3
:10136C00B8B130B583B0044690F818311D46012B46
:10137C0011D18DF80710C36801220DF107010A2065
:10138C00984708B903B030BD6369044898472846AC
:10139C00F8E7022070470320F4E700BF1C21000887
:1013AC00B8B130B583B0044690F818311D46012B06
:1013BC0011D18DF80710C36801220DF107010B2024
:1013CC00984708B903B030BD63690448984728466C
:1013DC00F8E7022070470320F4E700BF3C21000827
:1013EC0000282CD010B50446436953B302686AB187
:1013FC00416879B1816889B1C16899B10169A9B1B4
:10140C009047B8B9012384F8183110BD0E4898479D
:10141C000320FAE70D4898470320F6E70C48984755
:10142C000320F2E70B4898470320EEE70A48984759
:10143C000320EAE76369094898470120E5E70220A1
:10144C0070470320E1E700BF602100087C21000801
:10145C009C210008C0210008E0210008FC210008A4
:10146C0030B583B000238DF80730E0B1044690F816
:10147C0018311D46012B18D1C36801220DF107014B
:10148C000C20984728B96368984738B984F8180134
:10149C000CE0636906489847042007E06369054837
:1014AC009847284602E0022000E0032003B030BD3C
:1014BC00002100081822000810B52E4C4FF48E7233
:1014CC000021204600F03CF92B4B23602B4B636032
:1014DC002B4BA3602B4BE3602B4B23612B4B63619A
:1014EC002046FFF77DFF00BB01462248FFF7D8FEE0
:1014FC0000BB01211F48FFF7F3FE18BB01461D4836
:10150C00FFF70EFF30BB0F211A48FFF729FF48BB2E
:10151C0007211848FFF744FF58B11D4800F0A4F804
:10152C001448FFF79DFF012003E01A4800F09CF8D7
:10153C00012010BD184800F097F80E48FFF790FFF7
:10154C000120F6E7154800F08FF80A48FFF788FFEE
:10155C000120EEE7124800F087F80648FFF780FFFD
:10156C000120E6E70F4800F07FF80248FFF778FF0C
:10157C000120DEE7D8000020CD150008D1150008A9
:10158C00E5150008211600086D16000875160008F0
:10159C003C21000838220008E02000080021000847
:1015AC00502200081C21000808B50A4601460348D1
:1015BC00FFF756FE00B1012008BD00BFD800002087
:1015CC000020704708B50348FEF7EFFF003818BF3E
:1015DC00012008BD7800002070B506460D460B4C66
:1015EC00002210212046FFF79FFD4FF0FF332A46C3
:1015FC0031460748FEF7EFFF054601221021204631
:10160C00FFF792FD281E18BF012070BD0008014095
:10161C007800002030B583B000F00F008DF8040086
:10162C000B788DF805300C4C002210212046FFF76A
:10163C007BFD4FF0FF33022201A90848FEF7CBFFD8
:10164C000546012210212046FFF76EFD281E18BF0B
:10165C00012003B030BD00BF00080140780000201D
:10166C0008B5FFF7E5F808BD0FB400B5A3B024AB7F
:10167C0053F8042B0193802102A800F053F823B0F7
:10168C005DF804EB04B07047FFF7C2FD0B480C4942
:10169C000C4A002302E0D458C4500433C4188C42C2
:1016AC00F9D3094A094C002301E013600432A24229
:1016BC00FBD300F053F8FEF7FFFD7047000000204D
:1016CC005C000020B42200085C0000203C030020D9
:1016DC00FEE7000030B5141E05461A469BB005DA2D
:1016EC008B2303604FF0FF301BB030BD4FF0000375
:1016FC00199318BF0123E31A02930593084B009129
:10170C000491039369461E9B00F0AEF8431CBCBFCA
:10171C008B232B60002CE7D00022009B1A70E3E790
:10172C000802FFFF07B5009313460A46014603481B
:10173C000068FFF7CFFF03B000BD00BF0C00002016
:10174C0003460244934200D1704703F8011BF9E7AA
:10175C00014B1868704700BF0C00002070B50026C4
:10176C000C4C0D4B1D1BB6EBA50F09D1002600F040
:10177C0083FC0A4C0A4B1D1BB6EBA50F05D170BDA3
:10178C0054F8043B98470136EDE754F8043B98476E
:10179C000136F1E7AC220008AC220008AC220008AC
:1017AC00B0220008704770472DE9F0471F468E683D
:1017BC008246BE420C469046334653D8B1F90C00D3
:1017CC0010F4906F2BD065692368096905EB45050A
:1017DC00A3EB010905EBD5757B1C6D104B44AB429B
:1017EC002A4684BF1D462A46430527D51146504636
:1017FC0000F054F9064658B34A46216900F0DCFB68
:10180C00A38923F4906343F08003A38126614E44A3
:10181C0026603B463E466561A5EB0905A5601F4663
:10182C003A464146206800F08FFB0020A3689B1BC2
:10183C00A36023683B442360BDE8F087504600F06A
:10184C0055FB06460028E1D15046216900F0C2FB49
:10185C000C23CAF80030A3894FF0FF3043F040034B
:10186C00A381E9E73E46DBE72DE9F0471F468B896C
:10187C0006461B060D4614469CB010D50B6973B971
:10188C00402100F00BF92860286130B90C2333603B
:10189C004FF0FF301CB0BDE8F08740236B61002394
:1018AC00099320238DF8293030234FF0010803973A
:1018BC00644F8DF82A3023461A7899461AB1252A96
:1018CC0003F10103F8D1B9EB040A0BD053462246BD
:1018DC0029463046FFF768FF013000F0A380099AD3
:1018EC005244099299F80030002B00F09B800022A2
:1018FC004FF0FF33CDE9053209F10109049207924B
:10190C008DF853201A924C46052214F8011B4D48B1
:10191C0000F044FB049AD0B9D00644BF20238DF8C4
:10192C005330110744BF2B238DF8533099F80030F6
:10193C002A2B13D04B4600204FF00A0C07991A782B
:10194C001C46303A092A4AD9A8B1079113E0C01BAA
:10195C0008FA00F01043A1460490D4E7039B191D2C
:10196C001B680391002BBBBF5B4242F00202079342
:10197C000793B8BF049223782E2B0AD163782A2BB5
:10198C0032D1039B02341A1D1B68039243EAE373A2
:10199C000593DFF8B49003224846217800F0FEFA54
:1019AC0038B14022049BA0EB090082401343013460
:1019BC0004932178062225488DF8281000F0EEFAC1
:1019CC00002835D0224818BB039B073323F00703AC
:1019DC0008330393099B0134034409936BE70120FB
:1019EC000CFB01210133AAE700234FF00A0C184627
:1019FC000593611C0A780C46303A092A03D9002B4E
:101A0C00C7D00590C5E701230CFB00200131F1E79D
:101A1C0003AB00932A4630460E4B04A9AFF300806B
:101A2C00421CD7D1AB895B063FF532AF099831E741
:101A3C0003AB00932A463046064B04A900F020F96C
:101A4C00EEE700BF782200087E2200088222000800
:101A5C0000000000B517000870B50F4C0E46216849
:101A6C00054611B900F08AFA20603146284600F08C
:101A7C0085FA431C03D14FF0FF34204670BDC41CC3
:101A8C0024F00304A042F8D0211A284600F076FA7C
:101A9C000130F2D1EFE700BF300300202DE9F8430D
:101AAC00CD1C25F0030508350C2D38BF0C25002D59
:101ABC00064601DBA94204D90C2333600020BDE8A3
:101ACC00F883334F00F006FA3B681C463CBB2946B2
:101ADC003046FFF7C1FF431C044656D13C68A04674
:101AEC00B8F1000F40D1002C49D023684146304654
:101AFC0004EB030900F042FA814540D121683046DD
:101B0C006D1A2946FFF7A8FF013038D023682B4403
:101B1C0023603B685A685ABBC7F800800EE0226805
:101B2C00521B1ED40B2A16D96119A342256018BF6B
:101B3C005960636808BF396062514B60304600F0F1
:101B4C00CFF904F10B00231D20F00700C21A1CBFB3
:101B5C001B1AA350B3E76268A3420CBF3A605A60E9
:101B6C00ECE723466468B1E74446D8F80480B7E74D
:101B7C001A465B68A342FBD100235360DEE70C23BB
:101B8C003046336000F0ACF998E70560D6E700BF4B
:101B9C00340300202DE9F047914698468A680B697A
:101BAC0007469342B8BF1346C9F8003091F843205A
:101BBC000C46089E12B10133C9F80030236899060F
:101BCC0042BFD9F800300233C9F80030256815F04F
:101BDC00060507D104F1190AE368D9F800209B1A0D
:101BEC00AB4229DC94F843302268003B18BF012338
:101BFC0092062ED44146384604F14302B0470130D8
:101C0C0021D02368A16803F00603042B12BF002522
:101C1C00E568D9F80030226904BFED1A25EAE575AC
:101C2C008B1A2B449142C8BF1D464FF000091A3441
:101C3C004D451AD1002008E0012352464146384652
:101C4C00B047013003D14FF0FF30BDE8F0870135CC
:101C5C00C2E73020E11881F843005A1C94F8451073
:101C6C002244023382F84310C4E701232246414642
:101C7C003846B0470130E6D009F10109D8E7000039
:101C8C002DE9F04398460B7E85B0782B1746064617
:101C9C000C460C9A09D8622B01F1430108D8002B91
:101CAC0000F0DC80582B00F0BD8004F1420539E0D7
:101CBC00A3F163001528F8D801A555F820F000BF52
:101CCC00251D0008391D0008B71C0008B71C0008AA
:101CDC00B71C0008B71C0008391D0008B71C000809
:101CEC00B71C0008B71C0008B71C0008491E0008E8
:101CFC00651D0008F71D0008B71C0008B71C00087C
:101D0C00711E0008B71C0008651D0008B71C0008F0
:101D1C00B71C0008FF1D0008136804F14205191DCB
:101D2C001B68116084F842300123A8E01368256811
:101D3C00181D1060280601D51B6803E06A06FBD548
:101D4C00B3F90030002B03DA2D225B4284F84320D8
:101D5C000A22DFF878C113E02568106815F0800FAF
:101D6C0050F8043B02D16D0648BF9BB21060227E36
:101D7C00DFF858C16F2A5DD10822002084F8430097
:101D8C006568002DA56005DB20681D4320F004006C
:101D9C00206051D00D46B3FBF2F002FB103E1CF854
:101DAC000EE09A4205F801ED0346F4D9082A0BD14E
:101DBC002368DA0708D5236962689A42DEBF3023AC
:101DCC0005F8013C05F1FF35491B21613B462146D5
:101DDC003046CDF8008003AAFFF7DCFE013053D16A
:101DEC004FF0FF3005B0BDE8F083236843F02003CB
:101DFC0023607823DFF8D8C084F845302068156854
:101E0C0010F0800F55F8043B03D110F0400F18BFB1
:101E1C009BB21560C50744BF40F02000206023B181
:101E2C001022AAE7DFF8A4C0E6E7226822F020021D
:101E3C002260F5E70A22A0E70D46B7E71368D4F84D
:101E4C0000C01D1D60691CF0800F15601B6801D05F
:101E5C00186003E01CF0400FFAD0188000230D46E8
:101E6C002361B3E71368191D11601D680021284612
:101E7C00626800F093F808B1401B606063682361EE
:101E8C00002384F84330A1E72A46394630462369BB
:101E9C00C0470130A4D023689B0714D4E068039B8F
:101EAC009842B8BF18469DE701233946304604F1E5
:101EBC001902C047013093D00135E36803995B1ACE
:101ECC00AB42F1DCEAE70025F7E700BF8922000806
:101EDC009A2200080148FFF765BC00BF2C030020C4
:101EEC000148FFF760BC00BF2C0300202DE9F04136
:101EFC00074615460C4621B91146BDE8F041FFF7DF
:101F0C00CDBD2AB900F066F82C462046BDE8F0811C
:101F1C0000F0AAF88542064602D8B5EB500FF4D86B
:101F2C0029463846FFF7BAFD804608B94446ECE727
:101F3C00B5422A46214628BF324600F03DF82146DC
:101F4C00384600F047F8F1E7884210B501EB02047F
:101F5C0002D98442234607D8431EA14207D011F868
:101F6C00012B03F8012FF8E70244824200D110BD87
:101F7C0013F8011D02F8011DF7E7000038B5002326
:101F8C00054C054608462360FFF744F9431C02D173
:101F9C00236803B12B6038BD38030020034610B50D
:101FAC00C9B20244934201D1002004E018460478DF
:101FBC0001338C42F6D110BD0A44914200F1FF333B
:101FCC0000D1704710B511F8014B914203F8014F45
:101FDC00F9D110BD37B5002942D051F8043C0C1F83
:101FEC00002BB8BFE4180190FFF774FF1D4A01984D
:101FFC00136833B96360146003B0BDE83040FFF779
:10200C006FBFA34208D9256861198B4201BF1968BB
:10201C005B6849192160EDE71A465B680BB1A34276
:10202C00FAD911685518A5420BD1246821445418CB
:10203C00A3421160E0D11C685B680C4414605360CF
:10204C00DAE702D90C230360D6E7256861198B42C5
:10205C0001BF19685B684919216063605460CBE764
:10206C0003B030BD3403002051F8043C181F002B82
:10207C00BCBF0B58C0187047F8B500BFF8BC08BC03
:10208C009E467047F8B500BFF8BC08BC9E4670472A
:10209C000066FFFFFF7E3C180102000002030405EE
:1020AC00060708090A0B0C0D0E0F1010000000009B
:1020BC000000000001020304060708096D6178376F
:1020CC003231393A207772697465206661696C65C2
:1020DC00642E0A006D6178373231393A2073657499
:1020EC00206465636F6465206661696C65642E0AA3
:1020FC00000000006D6178373231393A2073657415
:10210C00206D6F6465206661696C65642E0A000041
:10211C006D6178373231393A2073657420696E7489
:10212C00656E73697479206661696C65642E0A004A
:10213C006D6178373231393A20736574207363617D
:10214C006E206C696D6974206661696C65642E0A19
:10215C00000000006D6178373231393A20737069B4
:10216C005F696E6974206973206E756C6C2E0A0041
:10217C006D6178373231393A207370695F64656903
:10218C006E6974206973206E756C6C2E0A000000E9
:10219C006D6178373231393A207370695F777269C3
:1021AC0074655F636D64206973206E756C6C2E0AA8
:1021BC00000000006D6178373231393A2073706954
:1021CC005F7772697465206973206E756C6C2E0A6A
:1021DC00000000006D6178373231393A2064656C4B
:1021EC0061795F6D73206973206E756C6C2E0A00BB
:1021FC006D6178373231393A2073706920696E69B4
:10220C0074206661696C65642E0A00006D61783714
:10221C003231393A20737069206465696E697420B3
:10222C006661696C65642E0A000000006D61783788
:10223C003231393A20696E6974206661696C656463
:10224C002E0A00006D6178373231393A207365748B
:10225C0020646973706C61792074657374206D6F80
:10226C006465206661696C65642E0A00232D302B31
:10227C002000686C4C00656667454647003031327B
:10228C0033343536373839414243444546003031D2
:10229C003233343536373839616263646566000031
:0422AC0075010008B0
:0422B0004D010008D4
:1022B400010000001000000000127A00100000204D
:1022C40000000000F40100205C020020C402002091
:1022D40000000000000000000000000000000000FA
:1022E40000000000000000000000000000000000EA
:1022F40000000000000000000000000000000000DA
:0C230400000000000000000000000000CD
:040000050800169544
:00000001FF
