:020000040800F2
:1000000000500020E91A000801030008030300085B
:1000100005030008070300080903000800000000AA
:100020000000000000000000000000000B030008BA
:100030000D030008000000000F0300081103000872
:10004000311B0008311B0008311B0008311B000860
:10005000311B0008311B0008311B0008311B000850
:10006000311B0008311B0008311B0008311B000840
:10007000311B0008311B0008311B0008311B000830
:10008000311B0008311B0008311B0008311B000820
:10009000311B0008311B0008311B0008311B000810
:1000A000311B0008311B0008311B0008311B000800
:1000B000311B0008311B0008311B0008311B0008F0
:1000C000311B0008311B0008311B0008311B0008E0
:1000D000311B0008311B0008311B0008311B0008D0
:1000E000311B0008311B0008311B00080000000014
:1000F0000000000000000000000000000000000000
:0C01000000000000000000005FF808F1A3
:10010C000348044B834202D0034B03B1184770479A
:10011C000C0000200C000020000000000548064BDD
:10012C001B1AD90F01EBA301491002D0034B03B1E9
:10013C00184770470C0000200C0000200000000045
:10014C0010B5064C237843B9FFF7DAFF044B13B113
:10015C000448AFF300800123237010BD0C00002075
:10016C00000000008C1B000808B5054B1BB10549AD
:10017C000548AFF30080BDE80840FFF7CFBF00BFD4
:10018C0000000000100000208C1B000884B00F4BF6
:10019C009A6942F020029A619A6902F02002019257
:1001AC00019A9A6942F004029A619A6902F0040277
:1001BC000292029A9A6942F008029A619B6903F0D2
:1001CC0008030393039B04B0704700BF0010024068
:1001DC0072B6FEE700B585B000230193029303933A
:1001EC000E480F4A02608360037303754FF460225C
:1001FC00C26143600123036100F042FB50B90190DE
:10020C0001220292039001A9044800F09BF918B94D
:10021C0005B000BDFFF7DCFFFFF7DAFF2800002078
:10022C000024014010B594B00AAC282200212046CD
:10023C0001F079FC00230593069307930893099327
:10024C00019302930393049302230A9301230E93C5
:10025C0010230F93204600F035FC98B90F2305931B
:10026C000146069007900890099005A800F05EFEE4
:10027C0050B902230193039001A800F023FF28B981
:10028C0014B010BDFFF7A4FFFFF7A2FFFFF7A0FF0C
:10029C0010B500F0C9FBFFF7C5FFFFF777FFFFF7BD
:1002AC0099FF01F0C1FB114A0121084601F078FBCE
:1002BC000FE0204600F042F904460D4800F074FBB4
:1002CC00042322460121022001F086FBC82000F005
:1002DC00CFFB074C204600F033FA0A21204600F0F1
:1002EC006BF80028E5D00024E7E700BFA41B00084A
:1002FC0028000020FEE7FEE7FEE7FEE7FEE770477A
:10030C007047704708B500F0A1FB08BD82B0114BD7
:10031C009A6942F001029A619A6902F00102009214
:10032C00009ADA6942F08052DA61DB6903F080539B
:10033C000193019B084A536823F0E06343F0806308
:10034C005360536823F0E06343F00073536002B0D2
:10035C00704700BF001002400000014000B587B09C
:10036C00002302930393049305930268104B9A4263
:10037C0001D007B000BD03F56C439A6942F40072DA
:10038C009A619A6902F400720092009A9A6942F09A
:10039C0004029A619B6903F004030193019B0123FE
:1003AC0002930323039302A9024800F087FFE0E7BE
:1003BC000024014000080140F0B583B005460C460E
:1003CC000023019300F04EFB2B689A6812F4807F97
:1003DC0023D107465A6812F4807F03D1DB6A13F4E9
:1003EC00700F29D0504B1E68022000F0FBFEB6FBAC
:1003FC00F0F62B6819694D4A114236D1D96802F1D1
:10040C005C42114231D11969494A114240D1DA6832
:10041C00484B1A423ED0292341E0AB6A43F02003FB
:10042C00AB62002385F82430012003B0F0BD2B68AB
:10043C001B6813F0020F0FD02B681B6813F0020F10
:10044C004FD1B4F1FF3FF7D0002CF0D000F00AFBF5
:10045C00C31BA342F0D9EAE7AB6A43F00403AB62D7
:10046C00002385F824300320DFE71969304A114254
:10047C0004D1D96802F16E4211420DD019692E4A8D
:10048C000A405AB9DA682C4B13405BB1FC2306E0E6
:10049C00292304E0142302E0542300E0FC2303FB93
:1004AC0006F607E05423FAE7019BB34210D3019BF5
:1004BC0001330193019BB34213D2B4F1FF3FF6D049
:1004CC00002CF1D000F0CEFAC01BA042EFD9EBE724
:1004DC00AB6A43F00403AB62002385F8243003209D
:1004EC00A3E72B686FF012021A60AB6A43F4007337
:1004FC00AB622B689B6803F46023B3F5602F01D0CB
:10050C00002092E7287B60B9AB6A23F48073AB625E
:10051C00AB6A13F4805F88D1AB6A43F00103AB6222
:10052C0083E7002081E700BF0800002024499224C3
:10053C009224491292244900499224000368D86CF1
:10054C007047000000B583B00022019290F824207F
:10055C00012A00F0A8800346012280F824204A6872
:10056C00062A34D8D0F800E0DEF83400013A02EB69
:10057C0082024FF01F0C0CFA02FC20EA0C00D1F89E
:10058C0000C00CFA02F20243CEF834200A68092AA1
:10059C0049D9D3F800E0DEF80C000A3A02EB42022B
:1005AC004FF0070C0CFA02FC20EA0C00D1F808C042
:1005BC000CFA02F20243CEF80C200A68103A012A17
:1005CC0045D90020002283F8242003B000BD0C2A5A
:1005DC0014D8D0F800E0DEF83000073A02EB8202C3
:1005EC004FF01F0C0CFA02FC20EA0C00D1F800C0F2
:1005FC000CFA02F20243CEF83020C7E7D0F800E044
:10060C00DEF82C000D3A02EB82024FF01F0C0CFAB4
:10061C0002FC20EA0C00D1F800C00CFA02F20243F2
:10062C00CEF82C20B2E7D3F800E0DEF8100002EB95
:10063C0042024FF0070C0CFA02FC20EA0C00D1F835
:10064C0008C00CFA02F20243CEF81020B5E71A6883
:10065C001648824205D09A6A42F020029A62012022
:10066C00B0E7906810F4000F1BD1906840F40000C4
:10067C0090600A68102A01D00020A3E70C4A126887
:10068C000C49A1FB0212920C02EB82025200019265
:10069C0002E0019A013A0192019A002AF9D110461E
:1006AC0090E700208EE702208FE700BF0024014076
:1006BC000800002083DE1B4330B583B00023019378
:1006CC0003689A6812F0010F33D104469A6842F01D
:1006DC0001029A60184B1B68184AA2FB03239B0C5F
:1006EC00019302E0019B013B0193019B002BF9D18B
:1006FC0000F0B8F9054623689B6813F0010F16D17A
:10070C0000F0B0F9431B022BF5D923689B6813F05A
:10071C00010FF0D1A36A43F01003A362E36A43F024
:10072C000103E362002384F82430012002E000205E
:10073C0000E0002003B030BD0800002083DE1B4326
:10074C0090F82430012B68D010B50446012380F8B2
:10075C002430FFF7B1FF00285BD1A36A23F4407368
:10076C0023F0010343F48073A36223682C4A934261
:10077C0027D0A26A22F48012A2625A6812F4806F07
:10078C0005D0A26A22F4405242F48052A262A26ABC
:10079C0012F4805F2BD0E26A22F00602E2620022A1
:1007AC0084F824206FF002021A6023689A6802F41D
:1007BC006022B2F5602F1DD09A6842F480129A60C4
:1007CC002AE0A2F58062526812F4702FD1D0A26A8E
:1007DC0042F48012A262134A526812F4806FD6D08F
:1007EC00A26A22F4405242F48052A262CFE7002265
:1007FC00E262D4E70A4A934204D09A6842F4A00217
:10080C009A6009E0A2F58062526812F4702FD3D17D
:10081C00F3E7002384F8243010BD0220704700BF9A
:10082C00002801400024014038B503689A6812F092
:10083C00010F01D1002038BD04469A6822F0010254
:10084C009A6000F00FF9054623689B6813F0010FBE
:10085C0013D000F007F9431B022BF5D923689B68D2
:10086C0013F0010FF0D0A36A43F01003A362E36A04
:10087C0043F00103E3620120DDE70020DBE7000029
:10088C00002800F08B8010B50446836A002B5CD0E6
:10089C002046FFF7C9FFA36A13F0100378D1002894
:1008AC0076D1A26A22F4885222F0020242F00202AD
:1008BC00A2626268E1690A43217B42EA4102D4F8F0
:1008CC0008C0BCF5807F03D0BCF1010F43D09C461F
:1008DC0094F814E0BEF1010F40D0D4F800E0DEF83B
:1008EC00041021F4694141EA0C01CEF80410D4F84B
:1008FC0000C0DCF808E02A490EEA01011143CCF8EB
:10090C000810A168B1F5807F01D0012902D12369BB
:10091C00013B1B05D4F800C0DCF82C1021F470014D
:10092C000B43CCF82C30236899681E4B0B409A4231
:10093C0025D0A36A23F0120343F01003A362E36AE9
:10094C0043F00103E362012027E0C36280F8243006
:10095C00FFF704FD9CE74FF4807CB9E731B9A1693E
:10096C0001394CEA413141F4006CB6E7A16A41F01F
:10097C002001A162E16A41F00101E162ADE70023CF
:10098C00E362A36A23F0030343F00103A36204E0D0
:10099C00A36A43F01003A362012010BD012070472D
:1009AC00FDF7E1FFFE0E1FFF90F82430012B13D052
:1009BC0010B50446012380F82430FFF735FF38B911
:1009CC00A36A23F4885323F0010343F00103A362C9
:1009DC00002384F8243010BD0220704710B5044663
:1009EC000E4B18680E4B1A784FF47A73B3FBF2F374
:1009FC00B0FBF3F000F032FE68B90F2C01D90120E6
:100A0C000AE0024621464FF0FF3000F017FE054B7E
:100A1C001C60002000E0012010BD00BF0800002079
:100A2C00000000200400002008B5074A136843F0BA
:100A3C0010031360032000F0EFFD0F20FFF7CEFF33
:100A4C00FFF764FC002008BD00200240034A116837
:100A5C00034B1B780B441360704700BF58000020F9
:100A6C0000000020014B1868704700BF58000020A0
:100A7C0038B50446FFF7F6FF0546B4F1FF3F02D048
:100A8C00044B1B781C44FFF7EDFF401BA042FAD32C
:100A9C0038BD00BF0000002082B0084B1B68084A1C
:100AAC00A2FB03235B0A00FB03F3019300BF019B32
:100ABC005A1E0192002BF9D102B070470800002099
:100ACC00D34D6210002800F0F38170B582B004465B
:100ADC00036813F0010F2CD09A4B5B6803F00C03E6
:100AEC00042B1DD0974B5B6803F00C03082B12D022
:100AFC006368B3F5803F41D0002B55D103F180439F
:100B0C0003F504331A6822F480321A601A6822F44E
:100B1C0080221A6037E08B4B5B6813F4803FE7D080
:100B2C00884B1B6813F4003F03D06368002B00F064
:100B3C00C181236813F0020F75D0824B5B6813F0F0
:100B4C000C0F5FD07F4B5B6803F00C03082B54D069
:100B5C002369002B00F08A807B4B01221A60FFF77F
:100B6C0081FF0546774B1B6813F0020F75D1FFF719
:100B7C0079FF401B0228F5D90320A0E1714A1368C4
:100B8C0043F480331360636843B3FFF76BFF054690
:100B9C006C4B1B6813F4003FCBD1FFF763FF401B7A
:100BAC006428F5D903208AE1B3F5A02F09D0654B51
:100BBC001A6822F480321A601A6822F480221A60B1
:100BCC00E1E703F18043A3F53C331A6842F4802239
:100BDC001A601A6842F480321A60D4E7FFF742FFB9
:100BEC000546584B1B6813F4003FA2D0FFF73AFFA1
:100BFC00401B6428F5D9032061E1524B5B6813F468
:100C0C00803FA5D14F4B1B6813F0020F03D0236913
:100C1C00012B40F051814B4A136823F0F8036169B2
:100C2C0043EAC1031360236813F0080F33D0A369A0
:100C3C00002B5DD0444B0122C3F88024FFF712FF38
:100C4C000546404B5B6A13F0020F21D1FFF70AFFF8
:100C5C00401B0228F5D9032031E13A4A136823F0EE
:100C6C00F803616943EAC1031360DCE7364B0022E9
:100C7C001A60FFF7F7FE0546324B1B6813F0020FA4
:100C8C00D1D0FFF7EFFE401B0228F5D9032016E167
:100C9C000120FFF701FF236813F0040F00F0988088
:100CAC00284BDB6913F0805F35D1264BDA6942F0B3
:100CBC008052DA61DB6903F080530193019B0123BD
:100CCC001E46224B1B6813F4807F27D0E368012B50
:100CDC003ED0002B54D103F1804303F504331A6A40
:100CEC0022F001021A621A6A22F004021A6234E03B
:100CFC00154B0022C3F88024FFF7B4FE0546114BB8
:100D0C005B6A13F0020FC6D0FFF7ACFE401B022843
:100D1C00F5D90320D3E000231E46D2E70B4A136813
:100D2C0043F480731360FFF79DFE0546074B1B6869
:100D3C0013F4807FCAD1FFF795FE401B6428F5D9C8
:100D4C000320BCE000100240000042420070004052
:100D5C005F4A136A43F001031362E36833B3FFF78E
:100D6C0081FE05465A4B1B6A13F0020F2FD1FFF779
:100D7C0079FE401B41F288339842F3D903209EE060
:100D8C00052B09D0524B1A6A22F001021A621A6A18
:100D9C0022F004021A62E0E74D4B1A6A42F0040298
:100DAC001A621A6A42F001021A62D6E7FFF75AFE7B
:100DBC000546474B1B6A13F0020F08D0FFF752FE93
:100DCC00401B41F288339842F3D9032077E0E6B90F
:100DDC00E369002B72D03E4A526802F00C02082ADA
:100DEC0056D0022B17D03B4B00221A66FFF73AFE67
:100DFC000446374B1B6813F0007F47D0FFF732FED9
:100E0C00001B0228F5D9032059E0314AD36923F09D
:100E1C008053D361DCE72F4B00221A66FFF722FECA
:100E2C0005462B4B1B6813F0007F06D0FFF71AFE0C
:100E3C00401B0228F5D9032041E0236AB3F5803F1B
:100E4C001AD023494B6823F47413226A606A024354
:100E5C0013434B601F4B01221A66FFF703FE044637
:100E6C001B4B1B6813F0007F0ED1FFF7FBFD001B23
:100E7C000228F5D9032022E0154A536823F40033E5
:100E8C00A1680B435360DCE7002018E0002016E05B
:100E9C00012B16D00E4B5B6803F48031226A914211
:100EAC0011D103F47013626A93420ED1002006E054
:100EBC0001207047012002E0012000E0184602B03A
:100ECC0070BD0120FBE70120F9E70120F7E700BF27
:100EDC0000100240000042420F4B5B6803F00C0212
:100EEC00082A01D00D487047C3F383420C49885C33
:100EFC0013F4803F0BD0084B5B68C3F34043094AA3
:100F0C00D35C064A02FB00F0B0FBF3F07047064BD3
:100F1C0003FB00F0704700BF0010024000127A0083
:100F2C00B41B0008B01B000800093D00002800F0AD
:100F3C00A08070B50D460446524B1B6803F00703A6
:100F4C008B420BD24F4A136823F007030B431360F9
:100F5C00136803F007038B4240F08D80236813F075
:100F6C00020F17D013F0040F04D0474A536843F410
:100F7C00E0635360236813F0080F04D0424A5368AF
:100F8C0043F460535360404A536823F0F003A16864
:100F9C000B435360236813F0010F31D06368012BAE
:100FAC0020D0022B25D0384A126812F0020F64D0E0
:100FBC0035494A6822F0030213434B60FFF752FD98
:100FCC000646314B5B6803F00C036268B3EB820F8F
:100FDC0016D0FFF747FD801B41F288339842F0D9B9
:100FEC00032045E0284A126812F4003FE0D10120AA
:100FFC003EE0254A126812F0007FD9D1012037E07B
:10100C00204B1B6803F00703AB420AD91D4A136837
:10101C0023F007032B431360136803F00703AB4261
:10102C002DD1236813F0040F06D0174A536823F40C
:10103C00E063E1680B435360236813F0080F07D09B
:10104C00114A536823F46053216943EAC103536086
:10105C00FFF742FF0C4B5B68C3F303130B4AD35CE3
:10106C00D8400B4B18600B4B1868FFF7B7FC0020EF
:10107C0070BD012070470120FAE70120F8E701203C
:10108C00F6E700BF0020024000100240E01B000801
:10109C000800002004000020014B1868704700BFB6
:1010AC000800002008B5FFF7F7FF044B5B68C3F39B
:1010BC00C223034AD35CD84008BD00BF00100240D5
:1010CC00D81B000870B582B00446036813F0010FFA
:1010DC0039D0414BDB6913F0805F4DD13E4BDA695F
:1010EC0042F08052DA61DB6903F080530193019B7B
:1010FC0001231E46394B1B6813F4807F3FD0364BBF
:10110C001B6A13F4407315D0626802F440729A4261
:10111C0010D0314A136A23F4407031494FF0010C5E
:10112C00C1F840C44FF0000CC1F840C4106213F079
:10113C00010F38D1284A136A23F4407361680B43BA
:10114C001362002E40D1236813F0020F06D0224AFE
:10115C00536823F44043A1680B435360236813F096
:10116C00100F36D01C4A536823F48003E1680B43FC
:10117C005360002002B070BD00231E46BAE7174A28
:10118C00136843F480731360FFF76CFC0546134B34
:10119C001B6813F4807FB2D1FFF764FC401B6428FA
:1011AC00F5D90320E6E7FFF75DFC05460A4B1B6A01
:1011BC0013F0020FBED1FFF755FC401B41F28833F0
:1011CC009842F3D90320D5E7D36923F08053D36138
:1011DC00B9E70020CEE700BF0010024000700040CD
:1011EC000000424208B5022851D0102803D0012833
:1011FC0028D0002055E02B4B5A68186810F08070EE
:10120C004FD0C2F383432849C85C12F4803F15D0F9
:10121C00244B5B68C3F34043244AD25C244BB3FB9E
:10122C00F2F303FB00F01F4B5B6813F4800F38D113
:10123C004000204BA3FB0030400832E01E4B03FB68
:10124C0000F0F0E7174B1A6A02F44073B3F5807F95
:10125C0007D0B3F5007F0AD0B3F5407F0FD0002044
:10126C001FE012F0020FF4D04FF4004019E00D4AC9
:10127C00526A12F0020FEFD049F6404011E0094BD0
:10128C00186810F400300CD04FF2244009E0FFF73E
:10129C0009FF044B5B68C3F3813301335B00B0FB84
:1012AC00F3F008BD00100240C81B0008C41B000866
:1012BC0000127A00ABAAAAAA00093D0070B582B050
:1012CC004FF0000EF446A4E0012B28D0022B03D1E2
:1012DC00CB6803F1080E24E01BBB8B68002B65D098
:1012EC00012B5CD042614FF0080E1AE0664DAB4208
:1012FC00F3D00CD8A5F58015AB42EED005F57025D2
:10130C00AB42EAD0A5F58015AB42E6D009E05F4DC3
:10131C00AB42E2D005F58035AB42DED001E0D1F82E
:10132C000CE0FF2C45D806464FEA8C0233680F259B
:10133C00954023EA05030EFA02F2134333604B681F
:10134C0013F0805F63D0524B9A6942F001029A61AC
:10135C009B6903F001030193019B4FEA9C02951CCE
:10136C004C4B53F825600CF00305AD000F23AB403C
:10137C0026EA0306484B984222D003F58063984234
:10138C0063D003F58063984261D003F58063984283
:10139C0014D0042315E0CB6803F10C0EC1E70261F5
:1013AC004FF0080EBDE74FF0000EBAE74FF0040EF9
:1013BC00B7E7061DACF108029200B7E7032300E083
:1013CC000023AB4033430232324D45F822304B6898
:1013DC0013F4801F3DD0314A9368234393604B68CC
:1013EC0013F4001F3BD02D4AD3682343D3604B68C2
:1013FC0013F4003F39D0294A5368234353604B6898
:10140C0013F4803F37D0254A1368234313600CF143
:10141C00010C0B6833FA0CF233D0012202FA0CF2F5
:10142C0003EA020432EA0303F1D14B68032BBAD06E
:10143C007FF64AAF122BAED03FF658AF112B7FF48C
:10144C0070AFCB6803F1040E6BE70123B9E70223FD
:10145C00B7E7124A936823EA04039360BFE70F4A85
:10146C00D36823EA0403D360C1E70C4A536823EA28
:10147C0004035360C3E7094A136823EA04031360A7
:10148C00C5E702B070BD00BF000022100000311093
:10149C00001002400000014000080140000401401F
:1014AC00002268E0032400E0002404FA0CF47445E4
:1014BC003FD0FF2B58D8054694002E684FF00F0EE6
:1014CC000EFA04FE26EA0E0C4FF0040E0EFA04FE81
:1014DC004CEA0E042C60C46824EA0303C360013296
:1014EC0031FA02F345D0012393400B40F7D0970813
:1014FC00BD1C264C54F8254002F0030C4FEA8C0C12
:10150C000F2505FA0CF606EA040E214DA842CBD0A5
:10151C00204CA04209D004F58064A04207D004F509
:10152C008064A042BED00424BFE70124BDE702249E
:10153C00BBE7194C256825EA03052560656825EA93
:10154C0003056560E56825EA0305E560A56825EAFD
:10155C000305A560DFF834C0BC1C5CF8245025EAF8
:10156C0006054CF82450A4E7051DA2F10804A400BC
:10157C00A3E7F0BD013231FA02F305D00123934009
:10158C000B40F7D0F0B5B2E7704700BF0000014048
:10159C0000080140000C0140000401400AB1016147
:1015AC007047090401617047002808DB0901C9B2C2
:1015BC0000F1604000F5614080F80013704700F0C6
:1015CC000F000901C9B2014B1954704714ED00E02A
:1015DC0000B500F00700A0F1030CBCF1040F07D814
:1015EC00C0F1070E0430062806D84FF0000C03E0BB
:1015FC004FF0040E4FF0000C4FF0FF3303FA0EF0D7
:10160C0021EA000101FA0CF103FA0CF322EA0302BD
:10161C0041EA020000BD0000074AD36823F4E063EE
:10162C001B041B0C000200F4E060034343F0BF6397
:10163C0043F40033D360704700ED00E010B504466E
:10164C00054BD868C0F30220FFF7C2FF01462046C5
:10165C00FFF7AAFF10BD00BF00ED00E00138B0F1AC
:10166C00807F0BD24FF0E0235861054AF02182F8BD
:10167C0023100020986107221A61704701207047DF
:10168C0000ED00E0704782B00023019302E0019B63
:10169C0001330193019B1D2BF9D902B07047000057
:1016AC0010B5104C01224FF428612046FFF776FF4D
:1016BC0001224FF4A8612046FFF770FFFFF7E3FF0C
:1016CC0000224FF428612046FFF768FFFFF7DBFF8D
:1016DC0000224FF4A8612046FFF760FFFFF7D3FF0D
:1016EC0010BD00BF000C014010B50D4C00224FF492
:1016FC0028612046FFF752FFFFF7C5FF01224FF488
:10170C00A8612046FFF74AFFFFF7BDFF01224FF407
:10171C0028612046FFF742FFFFF7B5FF10BD00BF61
:10172C00000C014070B586B02A4B9A6942F0080251
:10173C009A619A6902F008020192019ADA6922F41C
:10174C000012DA61DA6922F48002DA61224D4FF478
:10175C007C612846FFF7A4FE02A9002402944C6089
:10176C008C60CC604FF47C630293012603960323B8
:10177C00059304962846FFF7A1FD32464FF42861E5
:10178C002846FFF70BFF12E0134D01224FF4A8611E
:10179C002846FFF703FFFFF776FF00224FF4A861FE
:1017AC002846FFF7FBFEFFF76EFF0134E4B2082C6E
:1017BC00EAD9FFF799FF084C01224FF4A8612046A3
:1017CC00FFF7ECFE01224FF428612046FFF7E6FEFE
:1017DC0006B070BD00100240000C014070B506460A
:1017EC0000241AE000224FF428611F48FFF7D6FEB0
:1017FC00FFF749FF1C4D01224FF4A8612846FFF763
:10180C00CDFEFFF740FF00224FF4A8612846FFF7FA
:10181C00C5FEFFF738FF0134E4B2072C0AD8802349
:10182C0023411E42DED001224FF428610E48FFF7FF
:10183C00B5FEDDE70C4C01224FF428612046FFF782
:10184C00ADFEFFF720FF01224FF4A8612046FFF701
:10185C00A5FEFFF718FF00224FF4A8612046FFF702
:10186C009DFEFFF710FF70BD000C014010B5044643
:10187C00FFF716FF7820FFF7B1FF0020FFF7AEFF50
:10188C002046FFF7ABFFFFF72FFFFFF709FF7A208A
:10189C00FFF7A4FF0020FFF7A1FF2046FFF79EFFF4
:1018AC00FFF722FF10BD10B50446FFF7F9FE7820B4
:1018BC00FFF794FF4020FFF791FF2046FFF78EFFC4
:1018CC00FFF712FFFFF7ECFE7A20FFF787FF4020AF
:1018DC00FFF784FF2046FFF781FFFFF705FF10BDE0
:1018EC0010B50C4600F0070040F0B000FFF7BEFF4B
:1018FC000234C4F3031040F01000FFF7B7FF04F0FC
:10190C000F00FFF7B3FF10BD38B5002501E001351E
:10191C00EDB2072D0DD800212846FFF7E1FF00247A
:10192C0014F0800FF3D10020FFF7BDFF0134E4B2B7
:10193C00F6E738BDF8B5064615464F1EFF00FFB258
:10194C0001384000394600F0FE00FFF7C9FF0024C3
:10195C0009E0A5F12002114B03EB0213185DFFF710
:10196C00A2FF0134E4B2072CF3D97000C0B20138E5
:10197C003946C0B2FFF7B4FF00240BE0A5F12001FB
:10198C0004F10802054B03EB0113985CFFF78BFF86
:10199C000134E4B2072CF1D9F8BD00BFF01B0008EC
:1019AC00F8B507460E461546002406E0A119C9B243
:1019BC003846FFF7BFFF0134E4B22A5D002AF5D1A7
:1019CC00F8BD0246012002E002FB00F019464B1E56
:1019DC000029F9D1704700002DE9F843814688466B
:1019EC0017461E46002419E004EB0805EDB2311B26
:1019FC0001390A20FFF7E5FFB7FBF0F0094AA2FB1B
:101A0C000032D20802EB8202A0EB42023032D2B298
:101A1C0029464846FFF78EFF0134E4B2B442E3D3C3
:101A2C00BDE8F883CDCCCCCC08B5C820FFF720F8A6
:101A3C00FFF778FEAE20FFF719FFD520FFF716FF52
:101A4C008020FFF713FFA820FFF710FF3F20FFF7C0
:101A5C000DFFD320FFF70AFF0020FFF707FF402000
:101A6C00FFF704FFA120FFF701FFC820FFF7FEFEE0
:101A7C00DA20FFF7FBFE1220FFF7F8FE8120FFF7BC
:101A8C00F5FECF20FFF7F2FED920FFF7EFFEF12095
:101A9C00FFF7ECFEDB20FFF7E9FE3020FFF7E6FE58
:101AAC002020FFF7E3FE0220FFF7E0FEA420FFF763
:101ABC00DDFEA620FFF7DAFE8D20FFF7D7FE1420FF
:101ACC00FFF7D4FEAD20FFF7D1FE8B20FFF7CEFE43
:101ADC00AF20FFF7CBFEFFF717FF08BDFFF7D2FDD6
:101AEC000B480C490C4A002302E0D458C450043370
:101AFC00C4188C42F9D3094A094C002301E0136045
:101B0C000432A242FBD300F017F8FEF7C1FB70477A
:101B1C00000000200C000020E82100080C00002030
:101B2C005C000020FEE703460244934200D170475C
:101B3C0003F8011BF9E7000070B500260C4C0D4BA7
:101B4C001D1BB6EBA50F09D1002600F019F80A4CA5
:101B5C000A4B1D1BB6EBA50F05D170BD54F8043B09
:101B6C0098470136EDE754F8043B98470136F1E706
:101B7C00E0210008E0210008E0210008E421000831
:101B8C00F8B500BFF8BC08BC9E467047F8B500BF5E
:081B9C00F8BC08BC9E4670472E
:101BA4004C696768742056616C3A000001020000B9
:101BB40002030405060708090A0B0C0D0E0F10108A
:101BC4000102000002030405060708090A0B0C0DB4
:101BD4000E0F1010000000000102030400000000BA
:101BE40000000000010203040607080900000000C9
:101BF400000000000000000000000000000000F8E9
:101C040000000000000000333000000000100C064B
:101C1400100C0600000000000000000040C07840E6
:101C2400C0784000043F04043F040400007088FCB2
:101C340008300000001820FF211E0000F008F0000A
:101C4400E018000000211C031E211E0000F008887B
:101C5400700000001E2123241927211010160E00E5
:101C6400000000000000000000000000000000E090
:101C740018040200000000071820400000020418A5
:101C8400E00000000040201807000000404080F001
:101C9400804040000202010F01020200000000F037
:101CA400000000000101011F01010100000000000B
:101CB4000000000080B07000000000000000000080
:101CC4000000000000010101010101010000000009
:101CD40000000000003030000000000000000000A0
:101CE40080601804006018060100000000E010087D
:101CF4000810E000000F102020100F00001010F852
:101D0400000000000020203F202000000070080890
:101D14000888700000302824222130000030088810
:101D2400884830000018202020110E000000C02038
:101D340010F8000000070424243F240000F8088859
:101D4400880808000019212020110E0000E01088E6
:101D540088180000000F112020110E000038080818
:101D6400C83808000000003F000000000070880828
:101D740008887000001C222121221C0000E01008A9
:101D84000810E0000000312222110F00000000C002
:101D9400C00000000000003030000000000000809F
:101DA400000000000000806000000000000080408F
:101DB40020100800000102040810200040404040A8
:101DC40040404000040404040404040000081020FB
:101DD4004080000000201008040201000070480840
:101DE4000808F0000000003036010000C030C828A8
:101DF400E810E0000718272423140B000000C03863
:101E0400E0000000203C23020227382008F88888DC
:101E140088700000203F202020110E00C0300808E8
:101E240008083800071820202010080008F80808BF
:101E34000810E000203F202020100F0008F88888B8
:101E4400E8081000203F20202320180008F8888884
:101E5400E8081000203F200003000000C0300808FC
:101E64000838000007182020221E020008F8080085
:101E74000008F808203F210101213F20000808F84C
:101E8400080800000020203F20200000000008086F
:101E9400F8080800C08080807F00000008F888C02F
:101EA40028180800203F20012638200008F80800E0
:101EB40000000000203F20202020300008F8F80017
:101EC400F8F80800203F003F003F200008F830C029
:101ED4000008F808203F200007183F00E010080819
:101EE4000810E0000F10202020100F0008F8080848
:101EF4000808F000203F210101010000E01008085B
:101F04000810E0000F18242438504F0008F888887F
:101F140088887000203F2000030C3020007088085F
:101F2400080838000038202121221C00180808F86D
:101F3400080818000000203F2000000008F80800EE
:101F44000008F808001F202020201F0008788800BF
:101F540000C83808000007380E010000F80800F82F
:101F64000008F800033C0700073C030008186880D9
:101F74008068180820302C03032C30200838C8004F
:101F8400C83808000000203F20000000100808089E
:101F9400C83808002038262120201800000000FE40
:101FA400020202000000007F40404000000C30C0EC
:101FB40000000000000000010638C0000002020218
:101FC400FE000000004040407F00000000000402CA
:101FD40002020400000000000000000000000000F5
:101FE40000000000808080808080808000020204E5
:101FF40000000000000000000000000000008080DD
:10200400808000000019242222223F2008F800804A
:1020140080000000003F112020110E00000000800D
:1020240080800000000E112020201100000000809C
:102034008088F800000E112020103F2000008080CE
:1020440080800000001F222222221300008080F0E2
:10205400888888180020203F20200000000080800D
:1020640080808000006B94949493600008F8008052
:1020740080800000203F210000203F2000809898AD
:10208400000000000020203F20200000000000800D
:102094009898000000C08080807F000008F800004D
:1020A40080808000203F24022D302000000808F8A2
:1020B400000000000020203F20200000808080805D
:1020C40080808000203F20003F20003F80800080EF
:1020D40080800000203F210000203F2000008080FD
:1020E40080800000001F202020201F0080800080AE
:1020F4008000000080FFA12020110E00000000805D
:1021040080808000000E112020A0FF80808080004D
:102114008080800020203F2120000100000080807A
:10212400808080000033242424241900008080E06F
:10213400808000000000001F20200000808000003C
:1021440000808000001F202020103F20808080001D
:102154000080808000010E3008060100808000802D
:10216400008080800F300C030C300F000080800052
:10217400808080000020312E0E312000808080007D
:102184000080808080818E7018060100008080802D
:10219400808080000021302C2221300000000000CB
:1021A400807C020200000000003F4040000000006C
:1021B400FF00000000000000FF0000000002027C9D
:1021C400800000000040403F0000000000060101C4
:0C21D400020204040000000000000000F3
:0421E000750100087D
:0421E4004D010008A1
:0C21E800010000001000000000127A004E
:0400000508001AE9EC
:00000001FF
